:100000001BC1000074C5000047C500001AC50000F0
:10001000EDC40000C0C4000093C4000066C400002A
:1000200039C40000F9C50000C2C500008BC500003E
:1000300034C1000032C1000030C100002EC10000F8
:100040002CC100002AC1000028C1000026C1000008
:100050000C945C0822C1000020C10000D1C3000044
:100060001CC100001AC1000018C1000016C1000028
:1000700014C10000E9C6000010C100000EC100005C
:100080000CC100000AC1000008C1000006C1000048
:10009000A6C200007BC2000000C10000FEC000003C
:1000A000FCC00000FAC00000F8C00000F6C000006C
:1000B000F4C0000043C70000F0C00000EEC0000024
:1000C000ECC00000EAC00000E8C00000E6C000008C
:1000D000E4C00000E2C00000E0C00000DEC000009C
:1000E000DCC00000EC0CF10CF30CF50CF70CF90C77
:1000F000790C40034303320336033C037A0347037E
:100100004B035103550359035F03630367037A03EA
:100110006D037103750300002000230026002900F1
:100120002C002F003200000100000301060109012C
:1001300000000A0B02090C0D0E0807030401000061
:1001400000000000000000000000000000000000AF
:10015000000000000000000000000000121110006C
:10016000000000000000000000000000000000008F
:1001700000000000000000002200250028002B00E5
:100180002E003100340002010000050108010B01BE
:1001900000002100240027002A002D003000330039
:1001A00001010000040107010A0105050505070515
:1001B00008080808020202020A0A080804040404E3
:1001C000010101010101010103030303030303030F
:1001D000040707070C0C0C0C0C0C0C0C020202029E
:1001E00006060606060606060B0B0B0B0B0B0B0B87
:1001F0000102102020080810204010204080020139
:10020000020108040201010204081020408080401D
:10021000201008040201800402018040201008041C
:1002200002010804020101020408102040800102BA
:100230000408102040800F0D11241FBECFEFD1E223
:10024000DEBFCDBF00E00CBF13E0A0E0B2E0E4E809
:10025000FFE100E00BBF02C007900D92A036B1078E
:10026000D9F724E0A0E6B3E001C01D92AE35B20795
:10027000E1F711E0CCE1D1E000E006C021970109EF
:10028000802FFE010E94B40FCB31D10780E0080718
:10029000A9F70E94890A0C94C00FB2CECF92DF92C8
:1002A000EF92FF920F931F93CF93DF936C017A012C
:1002B0008B01C0E0D0E0CE15DF0589F0D8016D914B
:1002C0008D01D601ED91FC910190F081E02DC601E8
:1002D0001995892B11F47E0102C02196ECCFC7013C
:1002E000DF91CF911F910F91FF90EF90DF90CF9012
:1002F000089581EC93E03DD021E0892B09F420E0C2
:10030000822F08950E94BC0F089580E090E0089528
:10031000FC01538D448D252F30E0842F90E0821B0B
:10032000930B541710F0CF96089501970895FC0190
:10033000918D828D981761F0828DDF01A80FB11D1C
:100340005D968C91928D9F5F9F73928F90E0089540
:100350008FEF9FEF0895FC01918D828D981731F0FA
:10036000828DE80FF11D858D90E008958FEF9FEF4E
:100370000895FC01918D228D892F90E0805C9F4F24
:10038000821B91098F7399270895FC01848DDF01E9
:10039000A80FB11DA35ABF4F2C91848D90E00196F8
:1003A0008F739927848FA689B7892C93A089B189E7
:1003B0008C9180648C93938D848D981306C00288F1
:1003C000F389E02D80818F7D80830895EF92FF92E5
:1003D0000F931F93CF93DF93EC0181E0888F9B8D68
:1003E0008C8D981305C0E889F989808185FD23C02B
:1003F000F62E0B8D10E00F5F1F4F0F731127E02EAD
:100400008C8DE8120BC00FB607FCFACFE889F9898A
:10041000808185FFF5CFCE01B8DFF2CF8B8DFE0155
:10042000E80FF11DE35AFF4FF0820B8FEA89FB8939
:100430008081806207C0EE89FF896083E889F9893D
:1004400080818064808381E090E0DF91CF911F9173
:100450000F91FF90EF900895CF93DF93EC01888D7B
:100460008823C1F0EA89FB89808185FD05C0A889C0
:10047000B9898C9186FD0EC00FB607FCF5CF80813F
:1004800085FFF2CFA889B9898C9185FFEDCFCE0188
:100490007CDFE8CFDF91CF91089580E090E0892B59
:1004A00041F080E090E0892B21F00E940000811152
:1004B00020C080E090E0892B19F01BDF81111CC067
:1004C00080E090E0892B41F080E090E0892B21F0E2
:1004D0000E940000811113C080E090E0892BA1F000
:1004E00080E090E0892B81F00E94000081110AC019
:1004F00008950E940000DDCF0E940000E1CF0E941D
:100500000000EACF0C94000008953FB7F894809162
:10051000A1039091A203A091A303B091A40326B5D7
:10052000A89B05C02F3F19F00196A11DB11D3FBF2B
:10053000BA2FA92F982F8827820F911DA11DB11DB9
:10054000BC01CD0142E0660F771F881F991F4A95B5
:10055000D1F7089508958FB7F89480919B038FBFCA
:1005600008958EBD00000DB407FEFDCF8EB5089531
:100570008CBD9DBD0895659B05C0169A81E0809352
:100580009303089516981092930308951F920F9263
:100590000FB60F9211240BB60F922F933F934F93E8
:1005A0005F936F937F938F939F93AF93BF93EF93DB
:1005B000FF9381EC93E0E9DEFF91EF91BF91AF9162
:1005C0009F918F917F916F915F914F913F912F916B
:1005D0000F900BBE0F900FBE0F901F9018951F929B
:1005E0000F920FB60F9211240BB60F922F938F9389
:1005F0009F93EF93FF93E091D103F091D203808119
:10060000E091D703F091D80382FD12C090818091D0
:10061000DA038F5F8F732091DB03821751F0E09133
:10062000DA03F0E0EF53FC4F958F8093DA0301C0BB
:100630008081FF91EF919F918F912F910F900BBE31
:100640000F900FBE0F901F90189590E0FC0131970E
:10065000E231F10508F04EC08827E758FF4F8F4F71
:100660000C94B40F809180008F7703C0809180003C
:100670008F7D80938000089580918000877FF9CFDF
:1006800084B58F7702C084B58F7D84BD0895809135
:10069000B0008F7703C08091B0008F7D8093B00051
:1006A0000895809190008F7707C0809190008F7D92
:1006B00003C080919000877F80939000089580917F
:1006C000A0008F7707C08091A0008F7D03C080912C
:1006D000A000877F8093A0000895809120018F77EC
:1006E00007C0809120018F7D03C080912001877F0A
:1006F000809320010895863308F0865390917B0003
:10070000282F2870977F922B90937B0087708064AE
:1007100080937C0080917A00806480937A0080913D
:100720007A0086FDFCCF809178002091790090E0DE
:10073000922B08958F929F92AF92BF92CF92DF92A9
:10074000EF92FF926B017C01E0DE4B015C01C11472
:10075000D104E104F104E9F0D8DEDC01CB01881911
:100760009909AA09BB09883E9340A105B10578F310
:1007700021E0C21AD108E108F10888EE880E83E072
:10078000981EA11CB11CC114D104E104F10421F78D
:10079000DECFFF90EF90DF90CF90BF90AF909F9013
:1007A0008F900895CF93C82F8091090184FD0AC0CE
:1007B00088E293E032D664E670E080E090E0BADF51
:1007C00081E00DC08091060181FD0BC08AE393E0BA
:1007D00024D664E670E080E090E0ACDF8FEF8C0F11
:1007E00001C08C2FCF9108952FB7F89460919D038D
:1007F00070919E0380919F039091A0032FBF089555
:100800001F920F920FB60F9211242F933F938F9345
:100810009F93AF93BF9380919D0390919E03A0916E
:100820009F03B091A00330919C0323E0230F2D3749
:1008300020F40196A11DB11D05C026E8230F0296E4
:10084000A11DB11D20939C0380939D0390939E0353
:10085000A0939F03B093A0038091A1039091A20362
:10086000A091A303B091A4030196A11DB11D809393
:10087000A1039093A203A093A303B093A403BF91F9
:10088000AF919F918F913F912F910F900FBE0F903D
:100890001F9018951F920F920FB60F9211240BB64E
:1008A0000F922F933F934F935F936F937F938F9309
:1008B0009F93AF93BF93EF93FF93E0910E02F0915C
:1008C0000F021995FF91EF91BF91AF919F918F9179
:1008D0007F916F915F914F913F912F910F900BBE40
:1008E0000F900FBE0F901F9018951F920F920FB68A
:1008F0000F9211240BB60F922F933F934F935F9358
:100900006F937F938F939F93AF93BF93EF93FF93D7
:10091000E0910C02F0910D021995FF91EF91BF91BA
:10092000AF919F918F917F916F915F914F913F9187
:100930002F910F900BBE0F900FBE0F901F90189528
:100940001F920F920FB60F9211240BB60F922F9396
:100950003F934F935F936F937F938F939F93AF9347
:10096000BF93EF93FF93E0910202F0910302199578
:10097000FF91EF91BF91AF919F918F917F916F9177
:100980005F914F913F912F910F900BBE0F900FBE33
:100990000F901F9018951F920F920FB60F9211246F
:1009A0000BB60F922F933F934F935F936F937F9369
:1009B0008F939F93AF93BF93EF93FF93E0910002C8
:1009C000F09101021995FF91EF91BF91AF919F9125
:1009D0008F917F916F915F914F913F912F910F90E8
:1009E0000BBE0F900FBE0F901F9018951F920F9285
:1009F0000FB60F9211240BB60F922F933F934F9384
:100A00005F936F937F938F939F93AF93BF93EF9376
:100A1000FF93E0910A02F0910B021995FF91EF917B
:100A2000BF91AF919F918F917F916F915F914F9106
:100A30003F912F910F900BBE0F900FBE0F901F9004
:100A400018951F920F920FB60F9211240BB60F92AA
:100A50002F933F934F935F936F937F938F939F93C6
:100A6000AF93BF93EF93FF93E0910802F0910902D7
:100A70001995FF91EF91BF91AF919F918F917F91C8
:100A80006F915F914F913F912F910F900BBE0F90FF
:100A90000FBE0F901F9018951F920F920FB60F92D6
:100AA00011240BB60F922F933F934F935F936F9345
:100AB0007F938F939F93AF93BF93EF93FF93E091B7
:100AC0000602F09107021995FF91EF91BF91AF9146
:100AD0009F918F917F916F915F914F913F912F9156
:100AE0000F900BBE0F900FBE0F901F9018951F9286
:100AF0000F920FB60F9211240BB60F922F933F93C4
:100B00004F935F936F937F938F939F93AF93BF9315
:100B1000EF93FF93E0910402F09105021995FF9184
:100B2000EF91BF91AF919F918F917F916F915F9165
:100B30004F913F912F910F900BBE0F900FBE0F90D2
:100B40001F9018951F920F920FB60F9211240BB69B
:100B50000F922F933F934F935F936F937F938F9356
:100B60009F93AF93BF93CF93DF93EF93FF93C0E631
:100B7000D3E0E991F991309709F0199583E0C037F6
:100B8000D807B9F7FF91EF91DF91CF91BF91AF9166
:100B90009F918F917F916F915F914F913F912F9195
:100BA0000F900BBE0F900FBE0F901F9018951F92C5
:100BB0000F920FB60F9211240BB60F922F933F9303
:100BC0004F935F936F937F938F939F93AF93BF9355
:100BD000CF93DF93EF93FF93C0E7D3E0E991F991CF
:100BE000309709F0199583E0C038D807B9F7FF911D
:100BF000EF91DF91CF91BF91AF919F918F917F91B5
:100C00006F915F914F913F912F910F900BBE0F907D
:100C10000FBE0F901F9018951F920F920FB60F9254
:100C200011240BB60F922F933F934F935F936F93C3
:100C30007F938F939F93AF93BF93CF93DF93EF9364
:100C4000FF93C0E8D3E0E991F991309709F0199545
:100C500083E0C039D807B9F7FF91EF91DF91CF91C9
:100C6000BF91AF919F918F917F916F915F914F91C4
:100C70003F912F910F900BBE0F900FBE0F901F90C2
:100C800018951F93CF93DF931F92CDB7DEB7182F20
:100C90008CE591E069836CDC2898812F62DC6981A6
:100CA000862F5FDC289A0F90DF91CF911F910895D6
:100CB000CF93DF93413019F4DF91CF91E2CF4230EF
:100CC00099F4C62FD82F8CE591E052DC80910B016E
:100CD0008F7D80930B018D2F44DC8C2F42DC809123
:100CE0000B01806280930B01DF91CF910895CF9328
:100CF000DF93D82FC1E04D2F60E08C2FD9DFCF5F7D
:100D0000C930C9F7DF91CF910895833011F128F4EC
:100D1000813059F0823091F057C0853009F43AC0E3
:100D200060F1863009F443C04FC08CE493E075D382
:100D30008091150237DD8093150208958091140289
:100D400031DD8C3008F08CE0809314028091140225
:100D500008958091130226DD80931302909114026E
:100D60009D7F943011F0993029F48E3118F08EE186
:100D700080931302809113020895809113028831A9
:100D800018F088E180931302809112020BDD8093AA
:100D900012020895809113028B3318F08BE3809335
:100DA000130280911102FEDC80931102089580915C
:100DB00013028B3318F08BE380931302809110029F
:100DC000F1DC8093100208950895CF93C82F84E535
:100DD00093E011D36C2F70E080E090E04AE029D3DB
:100DE0008FEF92E008D360E088E04BDF61E087E0BE
:100DF00048DFEC2FF0E0E25DFD4F608186E041DFEF
:100E000061E085E0CF913DCFCF93C82F42E060E015
:100E100084E04EDF42E060E083E04ADF8C2F6AE04E
:100E20000E945F0FC82FE92FF0E0E25DFD4F42E026
:100E3000608181E03DDFEC2FF0E0E25DFD4F42E0BC
:100E4000608182E0CF9134CF1F920F920FB60F9244
:100E500011242F938F939F9380917C00813499F07C
:100E60008834E9F0803441F5809178002091790050
:100E700090E0922B90939A03809399038A3F910577
:100E8000DCF081E417C0809178002091790090E037
:100E9000922B909398038093970388E40BC08091E2
:100EA00078002091790090E0922B909396038093A4
:100EB000950380E480937C0080917A008064809325
:100EC0007A0081E0809394039F918F912F910F90EE
:100ED0000FBE0F901F901895CF92DF92EF92FF9266
:100EE0000F931F9381DC0091A7031091A803209119
:100EF000A9033091AA036B017C01C01AD10AE20A4E
:100F0000F30A41EDC41647E0D406E104F10438F0D9
:100F10003091900321E0311120E020939003609301
:100F2000A7037093A8038093A9039093AA031F912A
:100F30000F91FF90EF90DF90CF9008951F920F9246
:100F40000FB60F9211240BB60F922F933F934F932E
:100F50005F936F937F938F939F93AF93BF93CF9341
:100F6000DF93EF93FF938091BF039091C0030196AD
:100F70009093C0038093BF038091BF039091C003FF
:100F8000CD970CF465C080911A02882309F460C0E3
:100F9000C091BD03D091BE032196D093BE03C093F0
:100FA000BD038091190290E0C817D90720F0109274
:100FB0001A0281E09CDE80911A02813009F05EC045
:100FC000CE016CE370E087D76093BC038093180276
:100FD0008091BC032AE0622F72D78093BB0380917B
:100FE000BC036DD79093BA038091180268D78093A1
:100FF000B9038091180263D790931702E091BB0365
:10100000F0E0E25DFD4F42E0608184E051DEE0917E
:10101000BA03F0E0E25DFD4F6081606842E083E08A
:1010200047DEE091B903F0E0E25DFD4F42E0608110
:1010300082E03EDEE0911702F0E0E25DFD4F42E02B
:10104000608181E035DE1092C0031092BF03C89A20
:10105000C89AFF91EF91DF91CF91BF91AF919F918E
:101060008F917F916F915F914F913F912F910F9051
:101070000BBE0F900FBE0F901F90189580911A0213
:10108000823009F78091190290E08C1B9D0B9093A0
:10109000B8038093B7038091B7039091B8032CE312
:1010A00030E0B90118D76093BC038091B7039091E9
:1010B000B803B90110D78ACF1F920F920FB60F92C3
:1010C00011240BB60F928F929F92AF92BF92CF9244
:1010D000DF92EF92FF920F931F932F933F934F93C3
:1010E0005F936F937F938F939F93AF93BF93CF93B0
:1010F000DF93EF93FF938091BF039091C00301961C
:101100009093C0038093BF038091BF039091C0036D
:10111000883791050CF44FC11092C0031092BF03A1
:1011200063DB8AE3E8DABC01990F880B990BB0D531
:101130002BE038E240EA5BE35FD66B017C0123E3FE
:1011400033E343E950E405D587FF0DC020E030E0EC
:101150004FE254E4C701B6014FD623E333E343E93A
:1011600050E4FBD416C023E333E343E950E4C70162
:10117000B6018AD420E030E048EC52E43DD62AE9BA
:1011800039E949E95EE3E9D420E030E04FE254E494
:101190007CD420E030E04FEF52E476D46093B30388
:1011A0007093B4038093B5039093B6031DDB6093F3
:1011B000AB037093AC038093AD039093AE03CAE08E
:1011C000D0E0C12CD12C76018CE395DABC01990FCB
:1011D000880B990B5DD59B01AC01C701B60155D4B5
:1011E0006B017C016AE070E080E090E0A3DA219777
:1011F00059F720E030E040E251E4C701B601ADD438
:1012000020E030EC4FE754E4A8D420E030E040EA9E
:1012100050E4F2D52AE037EC49E554E4EDD526E672
:1012200036E446E853E430D420E030E04AE754E4C2
:1012300094D420E030E040E85FE326D428E430E5B1
:101240004CE75BE38AD420E030E040E05FE31DD46C
:101250006093AF037093B0038093B1039093B20394
:10126000C090AF03D090B003E090B103F090B20310
:1012700020E030E0A901C701B601BAD54601570107
:10128000181624F0B7FAB094B7F8B094C501B401B9
:10129000CCD48B01072E000C880B990BF9D49B0141
:1012A000AC01C501B401F0D320E030E040E251E4EC
:1012B000A3D5BBD47727FB01E25DFD4F608181E0C0
:1012C000E0DCCAE0D0E0C801BE0119D68B01FC0108
:1012D000FF27E25DFD4F6081606882E0D2DCC801DB
:1012E000BE010DD68B01FC01FF27E25DFD4F608141
:1012F00083E0C7DC20E030E0A901C701B60178D562
:1013000018166CF4C801BE01FAD5009711F460E01C
:1013100007C09927FC01E25DFD4F608101C061E0DB
:1013200084E0AFDCC090B303D090B403E090B50389
:10133000F090B60320E030E0A901C701B60158D50E
:10134000181624F0C701B601905802C0C701B601B3
:101350006CD4CAE0D0E0CB01BE01D1D58B01FC0139
:10136000FF27E25DFD4F6081606885E08ADCC8018F
:10137000BE01C5D58B01FC01FF27E25DFD4F6081F9
:1013800086E07FDC20E030E0A901C701B60130D55E
:1013900018166CF4C801BE01B2D5009711F460E0D4
:1013A00007C09927FC01E25DFD4F608101C061E04B
:1013B00087E067DCB09AB09AFF91EF91DF91CF910F
:1013C000BF91AF919F918F917F916F915F914F915D
:1013D0003F912F911F910F91FF90EF90DF90CF9051
:1013E000BF90AF909F908F900F900BBE0F900FBE4D
:1013F0000F901F901895009769F0FC010190002054
:10140000E9F73197AF01481B590BBC0181EC93E020
:101410000C944E0180E090E00895CF93DF93EBDFD2
:10142000EC018FEF92E0E7DF8C0F9D1FDF91CF91F2
:1014300008958F929F92AF92BF920F931F93CF9375
:10144000DF93CDB7DEB7A1970FB6F894DEBF0FBE1E
:10145000CDBF19A2423008F44AE08E010F5D1F4F44
:10146000842E912CA12CB12CA50194015BD5E62FE3
:10147000B901CA0101501109EA3014F4E05D01C05C
:10148000E95CD801EC93232B242B252B69F7C801A9
:10149000B2DFA1960FB6F894DEBF0FBECDBFDF91CD
:1014A000CF911F910F91BF90AF909F908F90089513
:1014B00090E0FC01E051FE4F2491FC01E655FE4F07
:1014C0008491882399F090E0880F991FFC01E057E0
:1014D000FE4FA591B491FC01EA58FE4F859194917D
:1014E0008FB7F894EC91E22BEC938FBF089520E036
:1014F00060FF0AC0FC01E20FF11DE20FF11D8CE656
:1015000097E091838083089566952F5F283081F757
:101510000895789484B5826084BD84B5816084BD6B
:1015200085B5826085BD85B5816085BD80916E0081
:10153000816080936E0010928100809181008260B2
:1015400080938100809181008160809381008091EF
:1015500080008160809380008091B10084608093DE
:10156000B1008091B00081608093B00080919100C3
:1015700082608093910080919100816080939100BE
:10158000809190008160809390008091A1008260A2
:101590008093A1008091A10081608093A10080913F
:1015A000A00081608093A0008091210182608093DF
:1015B000210180912101816080932101809120018E
:1015C00081608093200180917A00846080937A000A
:1015D00080917A00826080937A0080917A008160A5
:1015E00080937A0080917A00806880937A001092CC
:1015F000C100E091D103F091D20382E08083E091B9
:10160000CD03F091CE031082E091CF03F091D0038F
:101610008FEC80831092D903E091D503F091D6032B
:1016200086E08083E091D303F091D40380818061D0
:101630008083E091D303F091D4038081886080831C
:10164000E091D303F091D403808180688083E0919E
:10165000D303F091D40380818F7D8083EFE2F2E0A9
:10166000649180E693E043DF80916D008260809317
:101670006D00809168008460809368008BEB92E03D
:10168000909303028093020280916A00837F8460BA
:1016900080936A00ED9A809101018064809301013A
:1016A00080B3807180BB80B3807280BB80B3807454
:1016B00080BB80B3807880BB80910701817080936C
:1016C00007016C986D986E986F9880910801806101
:1016D00080930801809108018062809308018091C5
:1016E00008018064809308018091080180688093DC
:1016F000080180910A018F7280930A0180910A018A
:10170000806280930A01809107018D7F8093070199
:1017100080910B01806180930B0180910B018064AB
:1017200080930B0180910B01806880930B01809165
:101730000801826080930801809104018860809391
:10174000040180910401806180930401809104016F
:10175000806280930401809104018064809304017D
:101760008091010188608093010180910101806175
:1017700080930101809101018062809301013C9A74
:101780003D9A81B18FEF81B9809107018C6F809371
:1017900007018091040180688093040182B112B82E
:1017A00080910801837080930801809105018F77F3
:1017B0008093050185E37CDE88E27ADEDFB7F8946A
:1017C00080919103811139C02FED31E0F9018491AD
:1017D00045E252E0FA01649190E0880F991F80572A
:1017E0009E4FFC01A591B4918C916823D1F4E5E65C
:1017F000F1E08491FA011491F901C491CC2389F0AC
:1018000081110E942503EC2FF0E0EE0FFF1FEA5834
:10181000FE4FA591B4918FB7F8944C91412B4C9306
:101820008FBF85E345DE8CB580618CBD8CB580644F
:101830008CBD84E33DDE83E33BDE809191038F5FCB
:1018400080939103DFBF60E08FE01BDA42E060E04D
:101850008FE02EDA60E089E014DA42E060E089E0AF
:1018600027DA6FE08AE00DDA42E06FE08AE020DA02
:101870006FEF8BE006DA42E06FEF8BE019DA61E0A0
:101880008CE0FFD942E061E08CE012DA81E02FDAEF
:1018900064E670E080E090E00E949A0382E027DA3C
:1018A00080E090E0E9D0809392038EEA92E0A3DD9D
:1018B000109290033FE6632E31E0732E0FE212E0A8
:1018C00049EEE42E41E0F42E68EC70E080E090E018
:1018D0000E949A0364EF71E080E090E00E949A0316
:1018E0008091090184FD19C08091090186FF18C00B
:1018F00014C087E00ADA88DA68EC70E080E090E0F3
:101900000E949A03F3018491F8019491F701D49015
:10191000D11073C08AED92E06EDD0E944D02D4CFEB
:101920008CE093E07ADD0E94F4034B015C010E949D
:10193000F403DC01CB0188199909AA09BB09803A93
:101940009F40A105B10558F48091090184FD04C0B0
:101950008091090186FFEBCF8FE193E05EDD81ECA2
:1019600092E05BDD8EEC92E046DD6FE884E089D9A1
:101970006BED83E086D96FE482E083D96FE081E08C
:1019800080D981E022DAC1E08091090184FD18C08C
:1019900064E670E080E090E00E949A03C83010F4A2
:1019A000CF5F01C0C1E08C2F10DA8AEE92E023DD18
:1019B0004AE060E070E0CB013CDD8FEF92E01BDDA0
:1019C0008C2F90E0FC013197E730F10520F5882756
:1019D000EE58FF4F8F4FC8C282E093E00CDD81E0EC
:1019E00009C082E007C083E005C084E003C085E051
:1019F00001C086E08AD908DAC7CF81110E94250389
:101A00008D2D90E0880F991F8A5E9E4FFC01A59155
:101A1000B4918C917FCFC73009F0B6CF6DCFE1EC98
:101A2000F3E01382128288EE93E0A0E0B0E08483BA
:101A30009583A683B7838FE192E0918380838DECB9
:101A400090E0958784878CEC90E09787868788EC78
:101A500090E0918B808B89EC90E0938B828B8AEC69
:101A600090E0958B848B8EEC90E0978B868B118E1B
:101A7000128E138E148E0895F999FECF92BD81BDFA
:101A8000F89A992780B508955058BB27AA270ED0F9
:101A900075C166D130F06BD120F031F49F3F11F465
:101AA0001EF45BC10EF4E095E7FB51C1E92F77D13D
:101AB00080F3BA17620773078407950718F071F46B
:101AC0009EF58FC10EF4E0950B2EBA2FA02D0B01C1
:101AD000B90190010C01CA01A0011124FF27591B73
:101AE00099F0593F50F4503E68F11A16F040A22F79
:101AF000232F342F4427585FF3CF469537952795EA
:101B0000A795F0405395C9F77EF41F16BA0B620BE8
:101B1000730B840BBAF09150A1F0FF0FBB1F661F2F
:101B2000771F881FC2F70EC0BA0F621F731F841F72
:101B300048F4879577956795B795F7959E3F08F098
:101B4000B3CF9395880F08F09927EE0F9795879557
:101B50000895D9D008F481E008950CD00FC107D1C1
:101B600040F0FED030F021F45F3F19F0F0C0511189
:101B700039C1F3C014D198F39923C9F35523B1F3B4
:101B8000951B550BBB27AA2762177307840738F0EC
:101B90009F5F5F4F220F331F441FAA1FA9F333D04B
:101BA0000E2E3AF0E0E830D091505040E695001CFF
:101BB000CAF729D0FE2F27D0660F771F881FBB1FBB
:101BC000261737074807AB07B0E809F0BB0B802D95
:101BD000BF01FF2793585F4F2AF09E3F510568F0E1
:101BE000B6C000C15F3FECF3983EDCF38695779575
:101BF0006795B795F7959F5FC9F7880F911D9695E3
:101C0000879597F90895E1E0660F771F881FBB1F3E
:101C1000621773078407BA0720F0621B730B840BEB
:101C2000BA0BEE1F88F7E095089504D06894B111BF
:101C3000D9C00895BCD088F09F5790F0B92F99274C
:101C4000B751A0F0D1F0660F771F881F991F1AF0C7
:101C5000BA95C9F712C0B13081F0C3D0B1E0089590
:101C6000C0C0672F782F8827B85F39F0B93FCCF311
:101C7000869577956795B395D9F73EF490958095BD
:101C8000709561957F4F8F4F9F4F0895E89409C0DD
:101C900097FB3EF490958095709561957F4F8F4F9F
:101CA0009F4F9923A9F0F92F96E9BB279395F695B5
:101CB000879577956795B795F111F8CFFAF4BB0F33
:101CC00011F460FF1BC06F5F7F4F8F4F9F4F16C097
:101CD000882311F096E911C0772321F09EE8872F21
:101CE000762F05C0662371F096E8862F70E060E0DD
:101CF0002AF09A95660F771F881FDAF7880F969556
:101D0000879597F90895990F0008550FAA0BE0E8F9
:101D1000FEEF16161706E807F907C0F012161306AD
:101D2000E407F50798F0621B730B840B950B39F4ED
:101D30000A2661F0232B242B252B21F408950A2653
:101D400009F4A140A6958FEF811D811D089597F993
:101D50009F6780E870E060E008959FEF80EC089551
:101D600000240A941616170618060906089500247A
:101D70000A9412161306140605060895092E0394F4
:101D8000000C11F4882352F0BB0F40F4BF2B11F468
:101D900060FF04C06F5F7F4F8F4F9F4F089557FDC7
:101DA0009058440F551F59F05F3F71F04795880FC9
:101DB00097FB991F61F09F3F79F087950895121660
:101DC00013061406551FF2CF4695F1DF08C016160C
:101DD00017061806991FF1CF8695710561050894BD
:101DE0000895E894BB2766277727CB0197F90895D4
:101DF0008ADF08F48FEF08950BD0C0CFB1DF28F051
:101E0000B6DF18F0952309F0A2CFA7CF1124EACFAF
:101E1000C6DFA0F3959FD1F3950F50E0551F629F49
:101E2000F001729FBB27F00DB11D639FAA27F00D33
:101E3000B11DAA1F649F6627B00DA11D661F829F5A
:101E40002227B00DA11D621F739FB00DA11D621F3F
:101E5000839FA00D611D221F749F3327A00D611D5C
:101E6000231F849F600D211D822F762F6A2F11243E
:101E70009F5750408AF0E1F088234AF0EE0FFF1F91
:101E8000BB1F661F771F881F91505040A9F79E3FC8
:101E9000510570F05CCFA6CF5F3FECF3983EDCF3CA
:101EA000869577956795B795F795E7959F5FC1F705
:101EB000FE2B880F911D9695879597F90895991B8C
:101EC00079E004C0991F961708F0961B881F7A9531
:101ED000C9F780950895AA1BBB1B51E107C0AA1F33
:101EE000BB1FA617B70710F0A61BB70B881F991FBB
:101EF0005A95A9F780959095BC01CD01089597FB5F
:101F0000072E16F4009406D077FD08D0E4DF07FC16
:101F100005D03EF4909581959F4F089570956195F9
:101F20007F4F0895A1E21A2EAA1BBB1BFD010DC015
:101F3000AA1FBB1FEE1FFF1FA217B307E407F50779
:101F400020F0A21BB30BE40BF50B661F771F881F55
:101F5000991F1A9469F760957095809590959B01EB
:101F6000AC01BD01CF010895EE0FFF1F881F8BBF8D
:101F70000790F691E02D199481E090E0F89400C06C
:041F8000F894FFCF03
:101F8400AA02AA02AA02AA02AA02AA02AA02AA02ED
:101F9400050A0F070616010101500200000000E6C1
:101FA400014E0188012C02B9019701AB01007E307A
:101FB4006D79335B5F707F7B771F4E3D4F47000029
:101FC400000000000000000000000000000000000D
:101FD4002200000000204E780000040100007E3042
:101FE4006D79335B5F707F7B000000000000007739
:101FF4001F4E3D4F475E373038000E00157E677325
:10200400055B0F3E0000003B004E0078000802779D
:102014001F0D3D6F475E171038003000151D6773A4
:10202400055B0F1C00000000000000000000636856
:1020340065636B696E67206572726F722039382030
:1020440000736574207263742074696D6500707226
:10205400696E74207331203A200070726F67726168
:102064006D2065786974203A20005052474D204213
:10207400544E2050524553534544203A2020000DDD
:102084000A00636173652031203A20007274632072
:1020940074696D65206D6F64652063616C6C0065A7
:1020A400786974207274630070726F67206275744B
:1020B400746F6E207072657373007465737420623C
:1020C4007574746F6E20707265737300706F732013
:1020D400313A20007072696E74207332203A200005
:00000001FF
