:1000000064C100000C94250B0C94FA0A0C94CF0ADE
:100010000C94A40A0C94790A0C944E0A0C94230AAA
:100020000C94F8090C94BA0B0C94850B0C94500B9F
:100030007DC100007BC1000079C1000077C10000D4
:1000400075C1000073C1000071C100006FC10000E4
:10005000FFC300006BC1000069C100000C94AE0931
:1000600065C1000063C1000061C100005FC1000004
:100070005DC100000C946C1B59C1000057C1000009
:1000800055C1000053C1000051C100004FC1000024
:100090000C9483080C945A0849C1000047C1000021
:1000A00045C1000043C1000041C100003FC1000044
:1000B0003DC10000D9C1000039C1000037C10000B6
:1000C00035C1000033C1000031C100002FC1000064
:1000D0002DC100002BC1000029C1000027C1000074
:1000E00025C10000E8203B214E216121722187219A
:1000F0009D21AF21C121E820E5218822002208228C
:1001000012221C2224222E2238224322C4224729D2
:10011000622272228822072792229C222C27A22266
:10012000A822B222BD22C4224729E820E522F822D3
:100130000223062310232C271A2324232E233923BA
:1001400040234729E820B425C225D725EA25FF25E5
:100150002C2714261E26282632263E264A265526D9
:1001600062266F2688269D264729E820DC26FB2666
:10017000072712271F272C273727442751275F27B8
:1001800069274729D408D708C608CA08D0080E0925
:10019000DB08DF08E508E908ED08F308F708FB08C5
:1001A0000E0901090509090900002200250028009F
:1001B0002B002E003100340002010000050108016F
:1001C0000B0100002100240027002A002D00300030
:1001D000330001010000040107010A0100002000B2
:1001E0002300260029002C002F003200000100000F
:1001F00003010601090105050505070508080808AA
:10020000020202020A0A08080404040401010101AE
:1002100001010101030303030303030304070707A9
:100220000C0C0C0C0C0C0C0C02020202060606064E
:10023000060606060B0B0B0B0B0B0B0B010210201B
:10024000200808102040102040800201020108040C
:1002500002010102040810204080804020100804A0
:1002600002018004020180402010080402010804F9
:10027000020101020408102040800102040810203D
:10028000408000000A0B02090C0D0E080703040150
:10029000000000000000000000000000000000005E
:1002A000000000000000000000000000000012112B
:1002B000100000000000000000000000000000002E
:1002C0000000000000000000AE2E11241FBECFEF82
:1002D000D1E2DEBFCDBF00E00CBF15E0A0E0B2E090
:1002E000E6EEF2E600E00BBF02C007900D92AA35E1
:1002F000B107D9F726E0AAE5B5E001C01D92A439FF
:10030000B207E1F711E0C5E6D1E000E006C02197B1
:100310000109802FFE010E946531C436D10780E0BB
:100320000807A9F70E94AA1D0C94713169CECF92DB
:10033000DF92EF92FF920E94A2096B017C018091F3
:10034000D0059091D105A091D205B091D305A70118
:100350009601281B390B4A0B5B0BDA01C901813D61
:100360009740A105B10558F081EC94E00E94051D6D
:100370009091B70581E0911180E08093B7058EEFF1
:1003800094E00E94041DC092D005D092D105E09265
:10039000D205F092D305FF90EF90DF90CF900895B3
:1003A000CF92DF92EF92FF92CF93DF93CBD7609300
:1003B000C8057093C9058093CA059093CB05CAE020
:1003C000D0E0C12CD12C76018CE365D7BC01990F0C
:1003D000880B990B0E94F52F9B01AC01C701B60158
:1003E0000E94F22E6B017C016AE070E080E090E0F8
:1003F00071D7219749F720E030E040E251E4C7018E
:10040000B6010E945A2F20E030EC4FE754E40E94DE
:100410005A2F20E030E040EA50E40E94A9302AE060
:1004200037EC49E554E40E94A93026E636E446E874
:1004300053E40E94F12E20E030E04AE754E40E94A9
:100440005A2F20E030E040E85FE30E94F12E28E4DC
:1004500030E54CE75BE30E945A2FDF91CF91FF908C
:10046000EF90DF90CF9008951F920F920FB60F92EA
:1004700011240BB60F922F933F934F935F936F937B
:100480007F938F939F93AF93BF93CF93DF93EF931C
:10049000FF938091E4059091E50501969093E50521
:1004A0008093E4058091E4059091E505CD970CF4E7
:1004B0006FC080911402882309F46AC0C091E205DC
:1004C000D091E3052196D093E305C093E205809196
:1004D000130290E0C817D90728F01092140281E0A7
:1004E0000E94BB1980911402813009F067C0CE01CF
:1004F0006CE370E00E941C316093E105809312026E
:100500008091E1052AE0622F0E9410318093E0057E
:100510008091E1050E9410319093DF0580911202D5
:100520000E9410318093DE05809112020E941031EA
:1005300090931102E091E005F0E0EB5EFD4F42E0A8
:10054000608184E00E943519E091DF05F0E0EB5E08
:10055000FD4F6081606842E083E00E943519E091C0
:10056000DE05F0E0EB5EFD4F42E0608182E00E943C
:100570003519E0911102F0E0EB5EFD4F42E0608141
:1005800081E00E9435191092E5051092E405C89AA1
:10059000C89AFF91EF91DF91CF91BF91AF919F9159
:1005A0008F917F916F915F914F913F912F910F901C
:1005B0000BBE0F900FBE0F901F90189580911402E4
:1005C000823009F78091130290E08C1B9D0B909371
:1005D000DD058093DC058091DC059091DD052CE341
:1005E00030E0B9010E941C316093E1058091DC0587
:1005F0009091DD05B9010E941C3180CF1098E8E090
:10060000F1E080818F77808380818F7D80838081FE
:10061000877F808380818460808308951098E8E0DC
:10062000F1E080818F77808380818F7D80838081DE
:100630008860808380818B7F808308951098E8E0B4
:10064000F1E080818F7780838081806280838081E8
:10065000877F808380818B7F808308951098E8E076
:10066000F1E080818068808380818F7D80838081BC
:10067000877F808380818B7F80830895109AE8E054
:10068000F1E080818F77808380818F7D808380817E
:10069000877F808380818B7F808308958091B805D8
:1006A0008823E9F1813019F4179A159804C0823033
:1006B00029F41798159A1398119821C0833021F4C2
:1006C00017981598139AF8CF843099F417981598BD
:1006D0001398119A1298809108018F7E80930801D7
:1006E000809105018F7780930501809108018064D6
:1006F00014C08530A1F4179A159A139A119A12987A
:10070000809108018F7E80930801809105018068A7
:1007100080930501809108018F7B8093080180916F
:10072000B9058823D9F1813071F4129A80910801BA
:100730008F7E8093080117981598139811988091CF
:100740000501806824C0823099F4129880910801D4
:1007500080618093080117981598139811988091DB
:1007600005018F778093050180910801806414C092
:100770008330A1F4129A809108018061809308016E
:100780001798159813981198809105018F77809389
:100790000501809108018F7B809308010895CF9215
:1007A000DF92EF92FF92CED56093C8057093C90592
:1007B0008093CA059093CB058AE36DD5BC01990F50
:1007C000880B990B0E94F52F2BE038E240EA5BE39F
:1007D0000E94A9306B017C0123E333E343E950E439
:1007E0000E94562F87FF0FC020E030E04FE254E414
:1007F000C701B6010E94A93023E333E343E950E483
:100800000E945A2F1AC023E333E343E950E4C7019F
:10081000B6010E94F12E20E030E048EC52E40E9444
:10082000A9302AE939E949E95EE30E945A2F20E01C
:1008300030E04FE254E40E94F22E20E030E04FEF2F
:1008400052E40E94F12EFF90EF90DF90CF90089538
:100850001F920F920FB60F9211240BB60F928F9228
:100860009F92AF92BF92CF92DF92EF92FF920F933F
:100870001F932F933F934F935F936F937F938F9328
:100880009F93AF93BF93CF93DF93EF93FF938091A9
:10089000E4059091E50501969093E5058093E405C4
:1008A0008091E4059091E505883791050CF4E4C04A
:1008B0001092E5051092E40572DF6093D8057093FD
:1008C000D9058093DA059093DB056ADD20E030E0FE
:1008D00040E05FE30E94F22E20E030E040E85FE37A
:1008E0000E94F12E6093D4057093D5058093D605B0
:1008F0009093D705C090D405D090D505E090D6054B
:10090000F090D70520E030E0A901C701B6010E94B0
:10091000A53046015701181624F0B7FAB094B7F87D
:10092000B094C501B4010E94C22F8B01072E000CA8
:10093000880B990B0E94F52F9B01AC01C501B401F6
:100940000E94F12E20E030E040E251E40E94A93004
:100950000E94C22F7727FB01EB5EFD4F608181E093
:100960000E941E19CAE0D0E0C801BE010E943031C9
:100970008B01FC01FF27EB5EFD4F6081606882E028
:100980000E941E19C801BE010E9430318B01FC017A
:10099000FF27EB5EFD4F608183E00E941E1920E07F
:1009A00030E0A901C701B6010E94A530181674F401
:1009B000C801BE010E943031009711F460E007C009
:1009C0009927FC01EB5EFD4F608101C061E084E08E
:1009D0000E941E19C090D805D090D905E090DA0584
:1009E000F090DB0520E030E0A901C701B6010E94CC
:1009F000A530181624F0C701B601905802C0C701EF
:100A0000B6010E94C22FCAE0D0E0CB01BE010E9415
:100A100030318B01FC01FF27EB5EFD4F6081606888
:100A200085E00E941E19C801BE010E9430318B0171
:100A3000FC01FF27EB5EFD4F608186E00E941E19DE
:100A400020E030E0A901C701B6010E94A5301816C8
:100A500074F4C801BE010E943031009711F460E0C7
:100A600007C09927FC01EB5EFD4F608101C061E08A
:100A700087E00E941E19B09AB09AFF91EF91DF9122
:100A8000CF91BF91AF919F918F917F916F915F9126
:100A90004F913F912F911F910F91FF90EF90DF9019
:100AA000CF90BF90AF909F908F900F900BBE0F9004
:100AB0000FBE0F901F901895CF92DF92EF92FF928A
:100AC000CF93DF933FD46093C8057093C90580939B
:100AD000CA059093CB05CAE0D0E0C12CD12C760199
:100AE0008EE3D9D3BC01990F880B990B0E94F52F87
:100AF0009B01AC01C701B6010E94F22E6B017C0183
:100B00006AE070E080E090E0E5D3219749F720E0CB
:100B100030E040E251E4C701B6010E945A2F20E0C4
:100B200030EC4FE754E40E945A2F20E030E040EAD6
:100B300050E40E94A9302AE037EC49E554E40E94D1
:100B4000A93026E636E446E853E40E94F12E20E080
:100B500030E04AE754E40E945A2F20E030E040E8B9
:100B60005FE30E94F12E28E430E54CE75BE30E944E
:100B70005A2FDF91CF91FF90EF90DF90CF900895A3
:100B8000CF92DF92EF92FF92CF93DF93DBD360930C
:100B9000C8057093C9058093CA059093CB05CAE038
:100BA000D0E0C12CD12C76018BE375D3BC01990F19
:100BB000880B990B0E94F52F9B01AC01C701B60170
:100BC0000E94F22E6B017C016AE070E080E090E010
:100BD00081D3219749F720E030E040E251E4C7019A
:100BE000B6010E945A2F20E030EC4FE754E40E94F7
:100BF0005A2F20E030E040EA50E40E94A9302AE079
:100C000037EC49E554E40E94A93026E636E446E88C
:100C100053E40E94F12E20E030E04AE754E40E94C1
:100C20005A2F20E030E040E85FE30E94F12E28E4F4
:100C300030E54CE75BE30E945A2FDF91CF91FF90A4
:100C4000EF90DF90CF900895CF92DF92EF92FF92D6
:100C50000E94E01C8093BC05A2DD60939605709312
:100C6000970580939805909399058ADF6093920584
:100C700070939305809394059093950591DB6B0198
:100C80007C016093CC057093CD058093CE05909345
:100C9000CF0512DF60938E0570938F0580939005CA
:100CA0009093910520E030E04CE553E40E94A5309C
:100CB00018164CF481E08093BB0561E080E00E944F
:100CC00054191092B70520E030E04AE253E46091F5
:100CD00092057091930580919405909195050E94DD
:100CE000A53018164CF481E08093BB0562E080E0EB
:100CF0000E9454191092B70520E030E048E053E418
:100D0000C701B6010E94A53018164CF481E080930B
:100D1000BB0563E080E00E9454191092B7058091F2
:100D2000BC05811105C08091B705813009F457C019
:100D300020E030E046E653E4609196057091970517
:100D400080919805909199050E94A53018164CF451
:100D500081E08093BB0568E080E00E945419109206
:100D6000B70520E030E04CE053E4C701B6010E9433
:100D7000A530181654F020E030E048EC52E4C701EA
:100D8000B6010E94A53018164CF481E08093BB0593
:100D900069E080E00E9454191092B70520E030E02D
:100DA0004CE553E460918E0570918F05809190051C
:100DB000909191050E94A53018164CF481E0809323
:100DC000BB0561E080E00E9454191092B705809144
:100DD000B70581110DC081E08093BB0509C08093E8
:100DE000BB0566E080E00E9454191092B705A0CFC1
:100DF000FF90EF90DF90CF900895CF92DF92EF9227
:100E0000FF920F931F93CF93DF936C017A018B01B5
:100E1000C0E0D0E0CE15DF0589F0D8016D918D01DD
:100E2000D601ED91FC910190F081E02DC60119955C
:100E3000892B11F47E0102C02196ECCFC701DF910E
:100E4000CF911F910F91FF90EF90DF90CF90089579
:100E5000089580E090E00895FC01538D448D252F86
:100E600030E0842F90E0821B930B541710F0CF9644
:100E7000089501970895FC01918D828D981761F076
:100E8000828DDF01A80FB11D5D968C91928D9F5FC1
:100E90009F73928F90E008958FEF9FEF0895FC016C
:100EA000918D828D981731F0828DE80FF11D858D1F
:100EB00090E008958FEF9FEF0895FC01918D228DB2
:100EC000892F90E0805C9F4F821B91098F73992737
:100ED000089587EF95E0F1DF21E0892B09F420E008
:100EE000822F0895FC01848DDF01A80FB11DA35A44
:100EF000BF4F2C91848D90E001968F739927848F3A
:100F0000A689B7892C93A089B1898C9180648C9330
:100F1000938D848D981306C00288F389E02D80811B
:100F20008F7D80830895EF92FF920F931F93CF934D
:100F3000DF93EC0181E0888F9B8D8C8D981305C029
:100F4000E889F989808185FD23C0F62E0B8D10E09C
:100F50000F5F1F4F0F731127E02E8C8DE8120BC00F
:100F60000FB607FCFACFE889F989808185FFF5CFB4
:100F7000CE01B8DFF2CF8B8DFE01E80FF11DE35AF1
:100F8000FF4FF0820B8FEA89FB898081806207C066
:100F9000EE89FF896083E889F98980818064808394
:100FA00081E090E0DF91CF911F910F91FF90EF9042
:100FB0000895CF93DF93EC01888D8823C1F0EA89EF
:100FC000FB89808185FD05C0A889B9898C9186FD42
:100FD0000EC00FB607FCF5CF808185FFF2CFA88940
:100FE000B9898C9185FFEDCFCE017CDFE8CFDF9111
:100FF000CF91089580E090E0892B41F080E090E06F
:10100000892B21F00E940000811120C080E090E037
:10101000892B19F05EDF81111CC080E090E0892BE4
:1010200041F080E090E0892B21F00E9400008111C6
:1010300013C080E090E0892BA1F080E090E0892B44
:1010400081F00E94000081110AC008950E940000F2
:10105000DDCF0E940000E1CF0E940000EACF0C9497
:10106000000008953FB7F8948091EB059091EC054E
:10107000A091ED05B091EE0526B5A89B05C02F3FC8
:1010800019F00196A11DB11D3FBFBA2FA92F982FAE
:101090008827820F911DA11DB11DBC01CD0142E029
:1010A000660F771F881F991F4A95D1F708950895F5
:1010B0000E946D311F920F920FB60F9211240BB642
:1010C0000F922F933F934F935F936F937F938F93E1
:1010D0009F93AF93BF93EF93FF9387EF95E002DF6A
:1010E000FF91EF91BF91AF919F918F917F916F9100
:1010F0005F914F913F912F910F900BBE0F900FBEBC
:101100000F901F9018951F920F920FB60F921124F7
:101110000BB60F922F938F939F93EF93FF93E091D2
:101120000706F09108068081E0910D06F0910E0609
:1011300082FD12C09081809110068F5F8F73209185
:101140001106821751F0E0911006F0E0E950FA4FD5
:10115000958F8093100601C08081FF91EF919F9140
:101160008F912F910F900BBE0F900FBE0F901F907D
:10117000189590E0FC013197E231F10508F04EC07E
:101180008827EE53FF4F8F4F0C946531809180007C
:101190008F7703C0809180008F7D809380000895B9
:1011A00080918000877FF9CF84B58F7702C084B5A6
:1011B0008F7D84BD08958091B0008F7703C08091AA
:1011C000B0008F7D8093B0000895809190008F775C
:1011D00007C0809190008F7D03C080919000877F31
:1011E0008093900008958091A0008F7707C0809130
:1011F000A0008F7D03C08091A000877F8093A00016
:101200000895809120018F7707C0809120018F7D04
:1012100003C080912001877F809320010895CF93A0
:10122000DF9390E0FC01E45CFD4F2491FC01EA5067
:10123000FE4F8491882361F190E0880F991FFC0193
:10124000EE53FE4FC591D491FC01E855FE4FA59198
:10125000B491611109C09FB7F894888120958223C9
:101260008883EC912E230BC0623061F49FB7F89411
:101270003881822F809583238883EC912E2B2C93A9
:101280009FBF06C08FB7F894E8812E2B28838FBFAD
:10129000DF91CF910895863308F0865390917B00BB
:1012A000282F2870977F922B90937B008770806403
:1012B00080937C0080917A00806480937A00809192
:1012C0007A0086FDFCCF809178002091790090E033
:1012D000922B08958F929F92AF92BF92CF92DF92FE
:1012E000EF92FF926B017C01BDDE4B015C01C114EA
:1012F000D104E104F104E9F0B5DEDC01CB01881989
:101300009909AA09BB09883E9340A105B10578F364
:1013100021E0C21AD108E108F10888EE880E83E0C6
:10132000981EA11CB11CC114D104E104F10421F7E1
:10133000DECFFF90EF90DF90CF90BF90AF909F9067
:101340008F9008952FB7F8946091E7057091E805A4
:101350008091E9059091EA052FBF08951F920F92A1
:101360000FB60F9211242F933F938F939F93AF93B8
:10137000BF938091E7059091E805A091E905B091B0
:10138000EA053091E60523E0230F2D3720F401967E
:10139000A11DB11D05C026E8230F0296A11DB11D98
:1013A0002093E6058093E7059093E805A093E9056F
:1013B000B093EA058091EB059091EC05A091ED05C5
:1013C000B091EE050196A11DB11D8093EB059093A0
:1013D000EC05A093ED05B093EE05BF91AF919F9101
:1013E0008F913F912F910F900FBE0F901F901895E6
:1013F0001F920F920FB60F9211240BB60F922F93DC
:101400003F934F935F936F937F938F939F93AF938C
:10141000BF93EF93FF93E0910E02F0910F021995A5
:10142000FF91EF91BF91AF919F918F917F916F91BC
:101430005F914F913F912F910F900BBE0F900FBE78
:101440000F901F9018951F920F920FB60F921124B4
:101450000BB60F922F933F934F935F936F937F93AE
:101460008F939F93AF93BF93EF93FF93E0910C0201
:10147000F0910D021995FF91EF91BF91AF919F915E
:101480008F917F916F915F914F913F912F910F902D
:101490000BBE0F900FBE0F901F9018951F920F92CA
:1014A0000FB60F9211240BB60F922F933F934F93C9
:1014B0005F936F937F938F939F93AF93BF93EF93BC
:1014C000FF93E0910202F09103021995FF91EF91D1
:1014D000BF91AF919F918F917F916F915F914F914C
:1014E0003F912F910F900BBE0F900FBE0F901F904A
:1014F00018951F920F920FB60F9211240BB60F92F0
:101500002F933F934F935F936F937F938F939F930B
:10151000AF93BF93EF93FF93E0910002F09101022C
:101520001995FF91EF91BF91AF919F918F917F910D
:101530006F915F914F913F912F910F900BBE0F9044
:101540000FBE0F901F9018951F920F920FB60F921B
:1015500011240BB60F922F933F934F935F936F938A
:101560007F938F939F93AF93BF93EF93FF93E091FC
:101570000A02F0910B021995FF91EF91BF91AF9183
:101580009F918F917F916F915F914F913F912F919B
:101590000F900BBE0F900FBE0F901F9018951F92CB
:1015A0000F920FB60F9211240BB60F922F933F9309
:1015B0004F935F936F937F938F939F93AF93BF935B
:1015C000EF93FF93E0910802F09109021995FF91C2
:1015D000EF91BF91AF919F918F917F916F915F91AB
:1015E0004F913F912F910F900BBE0F900FBE0F9018
:1015F0001F9018951F920F920FB60F9211240BB6E1
:101600000F922F933F934F935F936F937F938F939B
:101610009F93AF93BF93EF93FF93E0910602F091F6
:1016200007021995FF91EF91BF91AF919F918F9113
:101630007F916F915F914F913F912F910F900BBED2
:101640000F900FBE0F901F9018951F920F920FB61C
:101650000F9211240BB60F922F933F934F935F93EA
:101660006F937F938F939F93AF93BF93EF93FF936A
:10167000E0910402F09105021995FF91EF91BF915D
:10168000AF919F918F917F916F915F914F913F911A
:101690002F910F900BBE0F900FBE0F901F901895BB
:1016A0001F920F920FB60F9211240BB60F922F9329
:1016B0003F934F935F936F937F938F939F93AF93DA
:1016C000BF93CF93DF93EF93FF93CAE5D5E0E99102
:1016D000F991309709F0199585E0CA36D807B9F71E
:1016E000FF91EF91DF91CF91BF91AF919F918F913A
:1016F0007F916F915F914F913F912F910F900BBE12
:101700000F900FBE0F901F9018951F920F920FB65B
:101710000F9211240BB60F922F933F934F935F9329
:101720006F937F938F939F93AF93BF93CF93DF93E9
:10173000EF93FF93CAE6D5E0E991F991309709F06C
:10174000199585E0CA37D807B9F7FF91EF91DF9176
:10175000CF91BF91AF919F918F917F916F915F9149
:101760004F913F912F910F900BBE0F900FBE0F9096
:101770001F9018951F920F920FB60F9211240BB65F
:101780000F922F933F934F935F936F937F938F931A
:101790009F93AF93BF93CF93DF93EF93FF93CAE7EA
:1017A000D5E0E991F991309709F0199585E0CA38AB
:1017B000D807B9F7FF91EF91DF91CF91BF91AF912A
:1017C0009F918F917F916F915F914F913F912F9159
:1017D0000F900BBE0F900FBE0F901F9018952F9279
:1017E0003F924F925F926F927F928F929F92AF92B1
:1017F000BF92CF92DF92EF92FF920F931F93CF93FE
:10180000DF9300D01F921F92CDB7DEB72B013C01B2
:101810008A0180910501877F8093050180910501F0
:101820008F7E809305012D838DDD6093B2057093CB
:10183000B3058093B4059093B5056093AE0570939E
:10184000AF058093B0059093B10560938A057093BE
:101850008B0580938C0590938D0574DDC090B20547
:10186000D090B305E090B405F090B505DC01CB0154
:101870008C199D09AE09BF098093AA059093AB0509
:10188000A093AC05B093AD052D8130E0C9018B5E0E
:101890009D4F1C018AE0C82ED12CE12CF12CC801EF
:1018A000110FAA0BBB0B89839A83AB83BC838091F6
:1018B000AA059091AB05A091AC05B091AD0584153A
:1018C0009505A605B70508F0E2C1BED93BDD8090BD
:1018D000B2059090B305A090B405B090B505681915
:1018E00079098A099B096093AA057093AB058093D7
:1018F000AC059093AD0520E63AEE40E050E00E9442
:1019000043312093A6053093A7054093A805509333
:10191000A90528EE33E040E050E00E9443312093D7
:10192000A2053093A3054093A4055093A5050ADDB5
:101930008090AE059090AF05A090B005B090B10535
:10194000DC01CB0188199909AA09BB0988389341A0
:10195000A105B105D0F1F6DC6093AE057093AF053B
:101960008093B0059093B10582E00E94BB19EADC38
:101970008090AE059090AF05A090B005B090B105F5
:10198000DC01CB0188199909AA09BB098C3B92405B
:10199000A105B10588F442E067E683E00E943519AD
:1019A00042E065E082E00E943519D1016C9142E08D
:1019B00081E00E943519DBCFC5DC6093AE057093E2
:1019C000AF058093B0059093B1056091A605709125
:1019D000A7058091A8059091A905A70196010E94ED
:1019E0004331B22EA62E2093A1056093A0056091ED
:1019F000A2057091A3058091A4059091A505A7016A
:101A000096010E944331422F262F40939F056093F9
:101A10009E056A2D8B2D0E9472190E94CF03609340
:101A20009605709397058093980590939905A8D88B
:101A30006093920570939305809394059093950518
:101A40003BD860938E0570938F058093900590939B
:101A5000910588E993E00E94041D8091B605082E47
:101A6000000C990B0E94521D82EB93E00E94041D12
:101A700060919605709197058091980590919905D0
:101A80000E94431D8EEB93E00E94051D83EC93E0C2
:101A90000E94041D609192057091930580919405B8
:101AA000909195050E94451D80ED93E00E94041DD4
:101AB00060918E0570918F058091900590919105B0
:101AC0000E94451D83EE93E00E94051D8CEF93E07C
:101AD0000E94041D6091A6057091A7058091A8053C
:101AE0009091A9050E94111D80E094E00E94041DC0
:101AF0006091A2057091A3058091A4059091A50520
:101B00000E94361D69817A818B819C810E94F52F0C
:101B10004B015C019B01AC016091960570919705AA
:101B200080919805909199050E94A530181624F58A
:101B30000E94CF0360939605709397058093980554
:101B400090939905A50194010E94A530181624F4DC
:101B50008DE295E00E94051D809105018F7B8093A9
:101B60000501809105018062809305018091020149
:101B70008F7D809302018BC08091050180648093EA
:101B8000050180910501806280930501DBDB809077
:101B90008A0590908B05A0908C05B0908D05DC0196
:101BA000CB0188199909AA09BB09883E9340A10570
:101BB000B10508F445C0C6DB60938A0570938B05B8
:101BC00080938C0590938D05BDDB80908A05909065
:101BD0008B05A0908C05B0908D05DC01CB01881998
:101BE0009909AA09BB0988379105A105B105D0F467
:101BF00020E030E042E053E460918E0570918F0563
:101C000080919005909191050E94A530181624F4BA
:101C100080910201806203C0809102018F7D8093D8
:101C20000201D2CF809102018F7D809302018ADB75
:101C300060938A0570938B0580938C0590938D0536
:101C400020E030E044E353E460918E0570918F050D
:101C500080919005909191050E94A53087FD02C06A
:101C6000449801C0449A20E030E044EB52E4609193
:101C700092057091930580919405909195050E942D
:101C8000A53087FD02C0459812CE459A10CE8091AE
:101C900005018F7B8093050180910501806280930F
:101CA0000501809102018F7D809302010F900F90BA
:101CB0000F900F900F90DF91CF911F910F91FF9098
:101CC000EF90DF90CF90BF90AF909F908F907F90DC
:101CD0006F905F904F903F902F9008954F925F923A
:101CE0006F927F928F929F92AF92BF92CF92DF922C
:101CF000EF92FF920F931F93CF93DF936B017C01C1
:101D00004A01022F809105018F7D8093050180910A
:101D100005018F7B8093050180910501877F80936A
:101D200005018FE395E00E94041DC701B6010E94E2
:101D3000361D08DB6093B2057093B3058093B4053C
:101D40009093B5056093AE057093AF058093B00591
:101D50009093B105F7DA4090B2055090B3056090CA
:101D6000B4057090B505DC01CB0184199509A6096D
:101D7000B7098093AA059093AB05A093AC05B093E7
:101D8000AD0510E00B5E1D4F8AE0482E512C612CF2
:101D9000712C092C000CAA08BB088091AA0590910F
:101DA000AB05A091AC05B091AD058C159D05AE05B8
:101DB000BF0508F08CC10E942406C4DA2091B20548
:101DC0003091B3054091B4055091B505DC01CB01CC
:101DD000821B930BA40BB50B8093AA059093AB05C4
:101DE000A093AC05B093AD05A7019601281B390B54
:101DF0004A0B5B0BCA01B90120939A0530939B05EE
:101E000040939C0550939D0520E63AEE40E050E05B
:101E10000E9443312093A6053093A7054093A8055F
:101E20005093A90528EE33E040E050E00E94433192
:101E30002093A2053093A3054093A4055093A505D4
:101E40008091B705811108C086E893E00E94041DC7
:101E50008FEF8093B6053BC175DA2091AE053091C6
:101E6000AF054091B0055091B105DC01CB01821B5B
:101E7000930BA40BB50B88389341A105B105D0F1A4
:101E800061DA6093AE057093AF058093B0059093CF
:101E9000B10582E00E94BB1955DA2091AE05309160
:101EA000AF054091B0055091B105DC01CB01821B1B
:101EB000930BA40BB50B8C3B9240A105B10588F4A4
:101EC00042E06EE383E00E94351942E067E782E07A
:101ED0000E943519F801608142E081E00E943519C5
:101EE000DBCF30DA6093AE057093AF058093B00519
:101EF0009093B1056091A6057091A7058091A80502
:101F00009091A905A30192010E944331C22FD62FBF
:101F10002093A1056093A0056091A2057091A3058F
:101F20008091A4059091A505A30192010E944331DF
:101F3000422F262F40939F0560939E056D2F8C2F77
:101F40000E9472190E94CF036093960570939705C3
:101F500080939805909399050E94C005609392051F
:101F60007093930580939405909395050E945C056A
:101F700060938E0570938F058093900590939105E3
:101F800088E993E00E94041D8091B605082E000C9C
:101F9000990B0E94521D82EB93E00E94041D6091F8
:101FA00096057091970580919805909199050E94EA
:101FB000431D8EEB93E00E94051D83EC93E00E948D
:101FC000041D609192057091930580919405909104
:101FD00095050E94451D80ED93E00E94041D6091CF
:101FE0008E0570918F0580919005909191050E94CA
:101FF000451D83EE93E00E94051D8CEF93E00E9447
:10200000041D6091A6057091A7058091A805909187
:10201000A9050E94111D80E094E00E94041D6091BA
:10202000A2057091A3058091A4059091A5050E9439
:10203000361DC501B4010E94F52F9B01AC016091D2
:1020400096057091970580919805909199050E9449
:10205000562F87FF06C0809102018F7E8093020178
:1020600036C0809102018061809302018091050158
:10207000806180930501809105018F7D809305012A
:1020800020E030E044E353E460918E0570918F05C9
:1020900080919005909191050E94A53087FD02C026
:1020A000449801C0449A20E030E044EB52E460914F
:1020B00092057091930580919405909195050E94E9
:1020C000A53087FD02C0459868CE459A66CE8091BE
:1020D00002018F7E80930201DF91CF911F910F91BA
:1020E000FF90EF90DF90CF90BF90AF909F908F9038
:1020F0007F906F905F904F9008954F925F926F9294
:102100007F928F929F92AF92BF92CF92DF92EF9287
:10211000FF920F931F93CF93DF934B015C01042F2A
:10212000809105018F7B8093050180910501877F58
:1021300080930501809105018F7D80930501809139
:1021400005018F7E80930501FDD86093B2057093E1
:10215000B3058093B4059093B5056093AE05709375
:10216000AF058093B0059093B10560938A05709395
:102170008B0580938C0590938D05E4D8C090B205B3
:10218000D090B305E090B405F090B505DC01CB012B
:102190008C199D09AE09BF098093AA059093AB05E0
:1021A000A093AC05B093AD0588EE482E83E0582E81
:1021B000612C712C10E00B5E1D4F9AE0C92ED12CC2
:1021C000E12CF12C8091AA059091AB05A091AC0572
:1021D000B091AD0588159905AA05BB0508F057C152
:1021E0000E942406AFD82091B2053091B3054091EA
:1021F000B4055091B505621B730B840B950B60936E
:10220000AA057093AB058093AC059093AD0520E6CD
:102210003AEE40E050E00E9443312093A60530930F
:10222000A7054093A8055093A905A30192010E9418
:1022300043312093A2053093A3054093A405509306
:10224000A5058091B705811108C086E893E00E943A
:10225000041D8FEF8093B6051AC174D82091AE0586
:102260003091AF054091B0055091B105DC01CB0133
:10227000821B930BA40BB50B88389341A105B105C4
:10228000B8F160D86093AE057093AF058093B00548
:102290009093B10582E00E94BB1954D82091AE05FD
:1022A0003091AF054091B0055091B105DC01CB01F3
:1022B000821B930BA40BB50B8C3B9240A105B1057F
:1022C00070F442E065E083E0D0D742E06FE482E062
:1022D000CCD7F801608142E081E0C7D7DECF32D8A9
:1022E0006093AE057093AF058093B0059093B105F0
:1022F0006091A6057091A7058091A8059091A90508
:10230000A70196010E944331C22FD62F2093A10529
:102310006093A0056091A2057091A3058091A4052A
:102320009091A505A70196010E944331422F262FC7
:1023300040939F0560939E056D2F8C2FD3D70E94ED
:10234000CF036093960570939705809398059093BB
:1023500099050E94C0056093920570939305809340
:102360009405909395050E945C0560938E0570938B
:102370008F05809390059093910588E993E00E94E2
:10238000041D8091B605082E000C990B0E94521D69
:1023900082EB93E00E94041D609196057091970571
:1023A00080919805909199050E94431D8EEB93E0D2
:1023B0000E94051D83EC93E00E94041D609192052C
:1023C0007091930580919405909195050E94451D0B
:1023D00080ED93E00E94041D60918E0570918F0541
:1023E00080919005909191050E94451D83EE93E0A8
:1023F0000E94051D8CEF93E00E94041D6091A605CC
:102400007091A7058091A8059091A9050E94111DC2
:1024100080E094E00E94041D6091A2057091A305E4
:102420008091A4059091A5050E94361D809105011B
:102430008F7D80930501809105018F7E809305013A
:1024400020E030E044E353E460918E0570918F0505
:1024500080919005909191050E94A53087FD02C062
:10246000449801C0449A20E030E044EB52E460918B
:1024700092057091930580919405909195050E9425
:10248000A53087FD02C045989DCE459A9BCEDF9131
:10249000CF911F910F91FF90EF90DF90CF90BF9061
:1024A000AF909F908F907F906F905F904F90089526
:1024B000CF9380910501886080930501449860E185
:1024C00077E280E090E00E946A0942E067E684E0FB
:1024D000CCD642E067E783E0C8D642E06BE582E015
:1024E000C4D642E06BE581E0C0D6CAE0809102012B
:1024F00080648093020168EC70E080E090E00E94CC
:102500006A09809102018F7B8093020168EC70E080
:1025100080E090E00E946A09C15041F760E080E0ED
:1025200090E0CF910C94E32E4F925F926F927F9246
:102530008F929F92AF92BF92CF92DF92EF92FF92D3
:102540000F931F93CF93DF936B017C010E94A2092D
:102550006093B2057093B3058093B4059093B5056D
:102560006093AE057093AF058093B0059093B1056D
:1025700060938A0570938B0580938C0590938D05ED
:102580000E94A2090091B2051091B3052091B405F3
:102590003091B505DC01CB01801B910BA20BB30B75
:1025A0008093AA059093AB05A093AC05B093AD05BD
:1025B00088EE482E83E0582E612C712C9AE0892EEB
:1025C000912CA12CB12C8091AA059091AB05A091E2
:1025D000AC05B091AD058C159D05AE05BF0508F0A5
:1025E00021C20E9424060E94A2090091B205109106
:1025F000B3052091B4053091B505DC01CB01801BFA
:10260000910BA20BB30B8093AA059093AB05A093FB
:10261000AC05B093AD05A7019601281B390B4A0BF9
:102620005B0BCA01B90120939A0530939B05409337
:102630009C0550939D0520E63AEE40E050E00E9454
:1026400043312093A6053093A7054093A8055093E6
:10265000A905A30192010E9443312093A205309362
:10266000A3054093A4055093A5058091B70581115A
:1026700008C086E893E00E94041D8FEF8093B605A2
:10268000D1C10E94A2090091AE051091AF05209121
:10269000B0053091B105DC01CB01801B910BA20B81
:1026A000B30B88389341A105B10568F10E94A209D6
:1026B0006093AE057093AF058093B0059093B1051C
:1026C00082E059D60E94A2090091AE051091AF0593
:1026D0002091B0053091B105DC01CB01801B910B3D
:1026E000A20BB30B8C3B9240A105B10510F42BD685
:1026F000E9CF0E94A2096093AE057093AF05809365
:10270000B0059093B1056091A6057091A7058091E1
:10271000A8059091A905A50194010E944331C22FFB
:10272000D62F2093A1056093A0056091A20570911A
:10273000A3058091A4059091A505A50194010E948F
:102740004331422F262F40939F0560939E056D2FA6
:102750008C2FC8D50E94CF03609396057093970580
:1027600080939805909399050E94C0056093920507
:102770007093930580939405909395050E945C0552
:1027800060938E0570938F058093900590939105CB
:1027900088E993E00E94041D8091B605082E000C84
:1027A000990B0E94521D82EB93E00E94041D6091E0
:1027B00096057091970580919805909199050E94D2
:1027C000431D8EEB93E00E94051D83EC93E00E9475
:1027D000041D6091920570919305809194059091EC
:1027E00095050E94451D80ED93E00E94041D6091B7
:1027F0008E0570918F0580919005909191050E94B2
:10280000451D83EE93E00E94051D8CEF93E00E942E
:10281000041D6091A6057091A7058091A80590916F
:10282000A9050E94111D80E094E00E94041D6091A2
:10283000A2057091A3058091A4059091A5050E9421
:10284000361D80919A0590919B05A0919C05B091B1
:102850009D05803C964BA640B10598F084E094E03D
:102860000E94051D80910501877F8093050180915D
:102870000201806180930201809105018061809353
:10288000050180919A0590919B05A0919C05B091BE
:102890009D0580599144A640B10980339547A10513
:1028A000B105C0F488E194E00E94051D8091020109
:1028B0008061809302018091050180618093050110
:1028C00080910501806280930501809105018860F7
:1028D0008093050180919A0590919B05A0919C059C
:1028E000B0919D05805B9E41A440B109803E92421B
:1028F000A240B10578F480910201806180930201C9
:102900008091050180618093050180910501877F99
:102910008093050180919A0590919B05A0919C055B
:10292000B0919D058058994AA340B10980339547DD
:10293000A105B10578F480910201806180930201C4
:102940008091050180618093050180910501886077
:102950008093050180919A0590919B05A0919C051B
:10296000B0919D0580599F45A140B109803F994490
:10297000A240B105A0F48091020180618093020120
:10298000809105018061809305018091050180623D
:102990008093050180910501877F809305018091D7
:1029A0009A0590919B05A0919C05B0919D05803959
:1029B0009F45A140B10578F4809102018061809328
:1029C00002018091050180618093050180910501DC
:1029D00088608093050120E030E044E353E4609197
:1029E0008E0570918F0580919005909191050E94C0
:1029F000A53087FD02C0449801C0449A20E030E031
:102A000044EB52E460919205709193058091940596
:102A1000909195050E94A53087FD02C04598D3CDC1
:102A2000459AD1CD809102018F7E809302018091E1
:102A300005018F7E8093050180910501877F80933A
:102A40000501DF91CF911F910F91FF90EF90DF90E3
:102A5000CF90BF90AF909F908F907F906F905F903E
:102A60004F9008954F925F926F927F928F929F92B4
:102A7000AF92BF92CF92DF92EF92FF920F931F938C
:102A8000CF93DF934B015C010E94A2096093B205D2
:102A90007093B3058093B4059093B5056093AE052C
:102AA0007093AF058093B0059093B10560938A054C
:102AB00070938B0580938C0590938D050E94A209DD
:102AC0000091B2051091B3052091B4053091B50580
:102AD000DC01CB01801B910BA20BB30B8093AA05E9
:102AE0009093AB05A093AC05B093AD0588EE482E4E
:102AF00083E0582E612C712C9AE0C92ED12CE12C48
:102B0000F12C8091AA059091AB05A091AC05B091F4
:102B1000AD0588159905AA05BB0508F047C10E94B7
:102B200024060E94A2090091B2051091B3052091DC
:102B3000B4053091B505601B710B820B930B60934C
:102B4000AA057093AB058093AC059093AD0520E684
:102B50003AEE40E050E00E9443312093A6053093C6
:102B6000A7054093A8055093A905A30192010E94CF
:102B700043312093A2053093A3054093A4055093BD
:102B8000A5058091B705811107C086E893E03CD781
:102B90008FEF8093B6050AC10E94A2090091AE058D
:102BA0001091AF052091B0053091B105DC01CB014A
:102BB000801B910BA20BB30B88389341A105B10583
:102BC000A0F10E94A2096093AE057093AF058093B7
:102BD000B0059093B10582E0CED30E94A209009186
:102BE000AE051091AF052091B0053091B105DC0123
:102BF000CB01801B910BA20BB30B8C3B9240A10528
:102C0000B10548F442E065E083E02FD342E06FE491
:102C100082E02BD3E2CF0E94A2096093AE057093AD
:102C2000AF058093B0059093B1056091A6057091B2
:102C3000A7058091A8059091A905A70196010E947A
:102C40004331C22FD62F2093A1056093A005609138
:102C5000A2057091A3058091A4059091A505A701F7
:102C600096010E944331422F262F40939F05609387
:102C70009E056D2F8C2F36D30E94CF03609396054F
:102C80007093970580939805909399050E94C005CD
:102C900060939205709393058093940590939505A6
:102CA0000E945C0560938E0570938F05809390055C
:102CB0009093910588E993E0A7D68091B605082EF8
:102CC000000C990BEFD682EB93E09ED660919605AF
:102CD000709197058091980590919905D4D68EEBC7
:102CE00093E093D683EC93E08FD660919205709138
:102CF00093058091940590919505C7D680ED93E05A
:102D000083D660918E0570918F058091900590918A
:102D10009105BBD683EE93E078D68CEF93E074D622
:102D20006091A6057091A7058091A8059091A905CD
:102D300078D680E094E068D66091A2057091A305F2
:102D40008091A4059091A50591D6809105018F7D74
:102D500080930501809105018F7E8093050120E01D
:102D600030E044E353E460918E0570918F058091CB
:102D70009005909191050E94A53087FD02C044986E
:102D800001C0449A20E030E044EB52E460919205A7
:102D90007091930580919405909195050E94A530BE
:102DA00087FD02C04598ADCE459AABCE8091050116
:102DB0008062809305018091050180618093050107
:102DC000DF91CF911F910F91FF90EF90DF90CF9007
:102DD000BF90AF909F908F907F906F905F904F903B
:102DE00008954F925F926F927F928F929F92AF92CF
:102DF000BF92CF92DF92EF92FF920F931F93CF93E8
:102E0000DF934B015C0129013A010E94A209609302
:102E1000B2057093B3058093B4059093B5056093A4
:102E2000AE057093AF058093B0059093B1056093A4
:102E30008A0570938B0580938C0590938D050E9475
:102E4000A2090091B2051091B3052091B40530910B
:102E5000B505DC01CB01801B910BA20BB30B80935A
:102E6000AA059093AB05A093AC05B093AD058AE09D
:102E7000C82ED12CE12CF12C8091AA059091AB05A4
:102E8000A091AC05B091AD0588159905AA05BB05C3
:102E900008F0A3C10E9424060E94A2090091B20575
:102EA0001091B3052091B4053091B505601B710BED
:102EB000820B930B6093AA057093AB058093AC05CE
:102EC0009093AD0520E63AEE40E050E00E94433199
:102ED0002093A6053093A7054093A8055093A90514
:102EE00028EE33E040E050E00E9443312093A205F9
:102EF0003093A3054093A4055093A5058091B70591
:102F0000811107C086E893E07FD58FEF8093B605E7
:102F100064C10E94A2090091AE051091AF052091F5
:102F2000B0053091B105DC01CB01801B910BA20BE8
:102F3000B30B88389341A105B105A0F10E94A20905
:102F40006093AE057093AF058093B0059093B10583
:102F500082E011D20E94A2090091AE051091AF0546
:102F60002091B0053091B105DC01CB01801B910BA4
:102F7000A20BB30B8C3B9240A105B10548F442E093
:102F80006BE583E072D142E06FE082E06ED1E2CF88
:102F90000E94A2096093AE057093AF058093B005BF
:102FA0009093B1056091A6057091A7058091A80541
:102FB0009091A905A70196010E944331C22FD62FF7
:102FC0002093A1056093A0056091A2057091A305CF
:102FD0008091A4059091A505A70196010E94433117
:102FE000422F262F40939F0560939E056D2F8C2FB7
:102FF00079D10E94CF0360939605709397058093D3
:103000009805909399050E94C0056093920570936E
:10301000930580939405909395050E945C056093B9
:103020008E0570938F05809390059093910588E9A4
:1030300093E0EAD48091B605082E000C990B32D5A6
:1030400082EB93E0E1D460919605709197058091B1
:1030500098059091990517D58EEB93E0D6D483EC23
:1030600093E0D2D46091920570919305809194057C
:10307000909195050AD580ED93E0C6D460918E05B8
:1030800070918F058091900590919105FED483EE0B
:1030900093E0BBD48CEF93E0B7D46091A605709118
:1030A000A7058091A8059091A905BBD480E094E084
:1030B000ABD46091A2057091A3058091A405909175
:1030C000A505D4D4C301B2010E94F32F9B01AC012A
:1030D000609196057091970580919805909199055A
:1030E0000E94562F87FF48C00E94A20900918A05BE
:1030F00010918B0520918C0530918D05DC01CB0161
:10310000801B910BA20BB30B8C3B9240A105B10528
:1031100098F10E94A20960938A0570938B058093B1
:103120008C0590938D050E94A20900918A0510914B
:103130008B0520918C0530918D05DC01CB01801B26
:10314000910BA20BB30BCC97A105B10530F4809184
:103150000201806280930201E6CF809102018F7D9F
:10316000809302010E94A20960938A0570938B05E7
:1031700080938C0590938D0520E030E044E353E488
:1031800060918E0570918F058091900590919105C9
:103190000E94A53087FD02C0449801C0449A20E0F7
:1031A00030E044EB52E46091920570919305809178
:1031B0009405909195050E94A53087FD02C0459821
:1031C00001C0459A8091050180628093050180913C
:1031D00005018064809305014FCE809105018F7BAE
:1031E00080930501DF91CF911F910F91FF90EF9098
:1031F000DF90CF90BF90AF909F908F907F906F9017
:103200005F904F9008958FB7F8948091F6058FBF27
:1032100008958EBD00000DB407FEFDCF8EB5089554
:103220008CBD9DBD0895659B05C0169A81E0809375
:10323000BA05089516981092BA0508951F93CF9372
:10324000DF931F92CDB7DEB7182F8CE591E069832D
:10325000E7DF2898812FDDDF6981862FDADF289A62
:103260000F90DF91CF911F910895CF93DF9341305D
:1032700019F4DF91CF91E2CF423099F4C62FD82FC5
:103280008CE591E0CDDF80910B018F7D80930B0168
:103290008D2FBFDF8C2FBDDF80910B01806280936B
:1032A0000B01DF91CF910895CF93DF93D82FC62FD5
:1032B00042E06FE484E0D9DF42E065E883E0D5DFF7
:1032C000ED2FF0E0EB5EFD4F42E0608182E0CDDF6C
:1032D000EC2FF0E0EB5EFD4F42E0608181E0DF919A
:1032E000CF91C3CF0F931F93CF93DF931F92CDB78F
:1032F000DEB7162F042FE82FF0E0EB5EFD4F42E023
:10330000608184E02983B1DFE12FF0E0EB5EFD4FC7
:103310006081606842E083E0A8DFE02FF0E0EB5ED0
:10332000FD4F42E0608182E0A0DF2981E22FF0E0E2
:10333000EB5EFD4F42E0608181E00F90DF91CF9125
:103340001F910F9192CF42E065E082E08EDF42E074
:103350006DE383E08ACF42E06DE381E086DF42E007
:1033600067E782E082DF42E06EE783E07EDF42E0F3
:103370006EE084E07ACFCF93DF93D82FC1E04D2F5A
:1033800060E08C2F72DFCF5FC930C9F7DF91CF913A
:1033900008954F925F926F927F928F929F92AF9219
:1033A000BF92CF92DF92EF92FF920F931F93CF9332
:1033B000DF934B015C010E94A2096093B2057093F8
:1033C000B3058093B4059093B5056093AE057093F3
:1033D000AF058093B0059093B1050E94A2090091BA
:1033E000B2051091B3052091B4053091B505DC010B
:1033F000CB01801B910BA20BB30B8093AA0590937A
:10340000AB05A093AC05B093AD0588EE482E83E0E4
:10341000582E612C712C9AE0C92ED12CE12CF12C64
:103420008091AA059091AB05A091AC05B091AD0536
:1034300088159905AA05BB0508F03DC10E94240620
:103440000E94A2090091B2051091B3052091B40524
:103450003091B505601B710B820B930B6093AA052D
:103460007093AB058093AC059093AD0520E63AEEE2
:1034700040E050E00E9443312093A6053093A70519
:103480004093A8055093A905A30192010E944331DE
:103490002093A2053093A3054093A4055093A5055E
:1034A0008091B705811107C086E893E0ADD28FEF18
:1034B0008093B60500C10E94A2090091AE0510914B
:1034C000AF052091B0053091B105DC01CB01801B27
:1034D000910BA20BB30B88389341A105B105A0F164
:1034E0000E94A2096093AE057093AF058093B0056A
:1034F0009093B10582E03FDF0E94A2090091AE05E2
:103500001091AF052091B0053091B105DC01CB01E0
:10351000801B910BA20BB30B8C3B9240A105B10514
:1035200048F442E067E383E0A0DE42E06FE482E03B
:103530009CDEE2CF0E94A2096093AE057093AF05B6
:103540008093B0059093B1056091A6057091A70591
:103550008091A8059091A905A70196010E94433189
:10356000C22FD62F2093A1056093A0056091A205DC
:103570007091A3058091A4059091A505A7019601DE
:103580000E944331422F262F40939F0560939E0552
:103590006D2F8C2FA7DE0E94CF036093960570934A
:1035A000970580939805909399050E94C0056093B4
:1035B00092057093930580939405909395050E94CE
:1035C0005C0560938E0570938F05809390059093B2
:1035D000910588E993E018D28091B605082E000C79
:1035E000990B60D282EB93E00FD2609196057091B7
:1035F0009705809198059091990545D28EEB93E0BF
:1036000004D283EC93E000D260919205709193050F
:10361000809194059091950538D280ED93E0F4D196
:1036200060918E0570918F05809190059091910524
:103630002CD283EE93E0E9D18CEF93E0E5D1609159
:10364000A6057091A7058091A8059091A905E9D1DB
:1036500080E094E0D9D16091A2057091A30580919A
:10366000A4059091A50502D220E030E044E353E4A4
:1036700060918E0570918F058091900590919105D4
:103680000E94A53087FD02C0449801C0449A20E002
:1036900030E044EB52E46091920570919305809183
:1036A0009405909195050E94A53087FD02C045982C
:1036B000B7CE459AB5CEDF91CF911F910F91FF9074
:1036C000EF90DF90CF90BF90AF909F908F907F90C2
:1036D0006F905F904F9008951F920F920FB60F92C8
:1036E00011242F938F939F9380917C00813499F0C4
:1036F0008834E9F0803441F5809178002091790098
:1037000090E0922B9093F5058093F4058A3F910504
:10371000DCF081E417C0809178002091790090E07E
:10372000922B9093F3058093F20588E40BC080916F
:1037300078002091790090E0922B9093F10580938E
:10374000F00580E480937C0080917A00806480930F
:103750007A0081E08093EF059F918F912F910F90D8
:103760000FBE0F901F901895E091F705F091F805A6
:103770000190F081E02D682F87EF95E01994009774
:1037800069F0FC0101900020E9F73197AF01481B77
:10379000590BBC0187EF95E00C94FD0680E090E0AA
:1037A00008958F929F92AF92BF920F931F93CF93E2
:1037B000DF93CDB7DEB7A1970FB6F894DEBF0FBE8B
:1037C000CDBF19A2423008F44AE08E010F5D1F4FB1
:1037D000842E912CA12CB12CA50194010E9443317F
:1037E000E62FB901CA0101501109EA3014F4E05D75
:1037F00001C0E95CD801EC93232B242B252B61F726
:10380000C801BDDFA1960FB6F894DEBF0FBECDBFD5
:10381000DF91CF911F910F91BF90AF909F908F90AC
:1038200008954F925F926F927F928F929F92AF9284
:10383000BF92CF92DF92EF92FF926B017C01B42E88
:103840009B01AC010E940C31882319F08BE495E0B8
:1038500027C026013701E89477F82FEF3FEF4FE7B5
:103860005FE7C301B2010E940C3181110DC02FEF3F
:103870003FEF4FE75FE7C301B2010E94562F1816D2
:103880001CF48FE495E00CC02FEF3FEF4FE75FE4AF
:10389000C701B6010E94A53018167CF483E595E0B7
:1038A000FF90EF90DF90CF90BF90AF909F908F9060
:1038B0007F906F905F904F9062CF2FEF3FEF4FE779
:1038C0005FECC701B6010E94562F87FDE7CF20E0CD
:1038D00030E0A901C701B6010E94562F87FF08C03A
:1038E0008DE242DF4C01F7FAF094F7F8F09402C051
:1038F000812C912CA12C60E070E080E09FE3AB1460
:1039000041F020E030E040E251E40E945A2FA394BD
:10391000F6CF9B01AC01C701B6010E94F22E2B012C
:103920003C010E94C72F6B017C010E94F32F9B0179
:10393000AC01C301B2010E94F12E2B013C014AE00F
:10394000C701B6012EDF7C01E80CF91CBB2021F079
:103950008EE20ADFE80EF91EDB2CDD2019F120E0F3
:1039600030E040E251E4C301B2010E94A9302B01D2
:103970003C010E94C72F4B01A12CB12C4AE0C5018C
:10398000B4010FDFE80EF91EC501B4010E94F32F48
:103990009B01AC01C301B2010E94F12E2B013C013D
:1039A000DA94DBCFC701FF90EF90DF90CF90BF900C
:1039B000AF909F908F907F906F905F904F90089501
:1039C000CF93DF93E2EBF2E08491ECE6F2E0D49166
:1039D000E6E2F2E0C491CC2391F081110E94B90893
:1039E000EC2FF0E0EE0FFF1FE452FE4FA591B491D3
:1039F000EC91ED2381E090E021F480E002C080E0D2
:103A000090E0DF91CF910895BACECF93DF93B7DEE8
:103A1000EC0187E595E0B3DE8C0F9D1FDF91CF9120
:103A200008954AE0BECECF93DF93682F70E080E028
:103A300090E04AE0B6DEEC0187E595E0A0DE8C0F71
:103A40009D1FDF91CF91089520E060FF0AC0FC0127
:103A5000E20FF11DE20FF11D87E991E09183808370
:103A6000089566952F5F283081F70895CF93DF93EF
:103A70004AE097DEEC0187E595E081DE8C0F9D1F23
:103A8000DF91CF91089542E0CCCECF93DF9342E017
:103A9000C8DEEC0187E595E072DE8C0F9D1FDF919B
:103AA000CF910895CF92DF92EF92FF92CF93DF9361
:103AB0006C01990FEE08FF08F7FE15C08DE254DE89
:103AC000EC0166277727CB016C197D098E099F09C8
:103AD0004AE067DE8C0F9D1FDF91CF91FF90EF9042
:103AE000DF90CF9008954AE0C701B601DF91CF91F2
:103AF000FF90EF90DF90CF9054CECF92DF92EF9275
:103B0000FF92CF93DF936C01990FEE08FF08F7FE49
:103B100010C08DE229DEEC0166277727CB016C19F6
:103B20007D098E099F094AE03CDE7C01EC0EFD1EFA
:103B300005C04AE0C701B60134DE7C0187E595E0A7
:103B40001EDE8E0D9F1DDF91CF91FF90EF90DF90D5
:103B5000CF900895CF93DF9300D01F92CDB7DEB7FB
:103B6000789484B5826084BD84B5816084BD85B558
:103B7000826085BD85B5816085BD80916E00816064
:103B800080936E001092810080918100826080930A
:103B9000810080918100816080938100809180000C
:103BA0008160809380008091B10084608093B10037
:103BB0008091B00081608093B0008091910082601C
:103BC0008093910080919100816080939100809119
:103BD00090008160809390008091A100826080932A
:103BE000A1008091A10081608093A1008091A0003C
:103BF00081608093A00080912101826080932101E7
:103C00008091210181608093210180912001816058
:103C10008093200180917A00846080937A00809163
:103C20007A00826080937A0080917A00816080932C
:103C30007A0080917A00806880937A001092C100A7
:103C4000E0910706F091080682E08083E091030688
:103C5000F09104061082E0910506F09106068FECC3
:103C6000808310920F06E0910B06F0910C0686E01F
:103C70008083E0910906F0910A068081806180834B
:103C8000E0910906F0910A06808188608083E091C6
:103C90000906F0910A06808180688083E091090618
:103CA000F0910A0680818F7D8083EBE7F2E06491DA
:103CB0008AE595E0C9DE80916D00826080936D0099
:103CC0008091680084608093680083E199E190931B
:103CD00003028093020280916A00837F8460809354
:103CE0006A00ED9A8091010180648093010180B3A4
:103CF000807180BB80B3807280BB80B3807480BBD6
:103D000080B3807880BB8091070181708093070128
:103D10006C986D986E986F9880910801806180937F
:103D20000801809108018062809308018091080158
:103D30008064809308018091080180688093080165
:103D400080910A018F7280930A0180910A0180623A
:103D500080930A01809107018D7F809307018091F4
:103D60000B01806180930B0180910B018064809333
:103D70000B0180910B01806880930B0180910801F9
:103D8000826080930801809104018860809304011F
:103D9000809104018061809304018091040180621C
:103DA00080930401809104018064809304018091D8
:103DB00001018860809301018091010180618093FD
:103DC0000101809101018062809301013C9A3D9A3A
:103DD00081B18FEF81B9809107018C6F80930701CA
:103DE0008091040180688093040182B112B88091AF
:103DF0000801837080930801809105018F7780937B
:103E0000050161E085E30E940F09EFB6F894809107
:103E1000BD0581113FC02BE232E0F901849141E7F9
:103E200052E0FA01649190E0880F991F8E539E4FE3
:103E3000FC01A591B4918C916823D1F4E7EBF2E0F9
:103E40008491FA01D490F901F490FF2089F0811156
:103E50000E94B908EF2DF0E0EE0FFF1FE855FE4F6E
:103E6000A591B4918FB7F8944C914D294C938FBF85
:103E700061E085E30E940F098CB580618CBD8CB533
:103E800080648CBD61E084E30E940F0961E083E3FC
:103E90000E940F098091BD058F5F8093BD05EFBE25
:103EA00060E089E0CBD942E060E089E0DED96FE0F4
:103EB0008AE0C4D942E06FE08AE0D7D96FEF8BE0A7
:103EC000BDD942E06FEF8BE0D0D961E08CE0B6D98C
:103ED00042E061E08CE0C9D981E04DDA82E04BDA62
:103EE0001092800082E08093810080916F00816059
:103EF00080936F00B09A789480E090E00E94DB2E6F
:103F00008093BE0589EA92E07FDD8091BE058BDD5E
:103F10008091BE05882349F068E089E0C5D989EA27
:103F200092E072DD8091BE057EDD15DA809102019E
:103F3000886080930201809105018860809305016B
:103F400068E97AE380E090E00E946A0980910201CA
:103F50008F7E8093020180910501877F8093050108
:103F6000809102018F7E80930201809105018F7DF7
:103F700080930501809105018F7E8093050160E0AB
:103F800080E30E940F098AE0C82ED12CE12CF12C8D
:103F90008091050188608093050186EB92E034DD15
:103FA0008091BC0540DD8091BB05811127C008DDF3
:103FB0008093BC058091BC05882311F0CCD91EC02C
:103FC00042E06DE381E051D942E067E782E04DD9FC
:103FD00042E06EE783E049D942E06EE084E045D9F3
:103FE00068EE73E080E090E00E946A0982E0C3D945
:103FF00068EE73E080E090E00E946A09659B05C06E
:10400000169A81E08093BA0503C016981092BA05FB
:10401000669905C0149A81E08093C70503C014987F
:104020001092C7058091090184FD19C01092B9054D
:104030008091B805853010F081E001C08F5F8093DA
:10404000B8050E944E038CEC92E0DEDC8091B8054E
:10405000EADC64E670E080E090E00E946A0980910A
:10406000090186FD19C01092B8058091B905833009
:1040700010F081E001C08F5F8093B9050E944E036C
:1040800087EC92E0C1DC8091B905CDDC64E670E09C
:1040900080E090E00E946A0981EE92E0B5DC8091B8
:1040A000B705C1DC8EEE92E0B0DC8091B7058111DE
:1040B00009C06CE271E080E090E00E946A090E9411
:1040C000FA0766CF6CE271E080E090E00E946A0936
:1040D0008091C705813049F08091BA05813029F07F
:1040E0008091BC0581110C94A82E809102018064FE
:1040F0008093020162E370E080E090E00E946A0930
:10410000809102018F7B809302016CE370E080E07C
:1041100090E00E946A09809102018064809302010C
:1041200062E370E080E090E00E946A098091020101
:104130008F7B809302016CE370E080E090E00E944E
:104140006A098091020180648093020162E370E059
:1041500080E090E00E946A09809102018F7B809349
:1041600002016CE370E080E090E00E946A098BEA53
:1041700094E04BDC1092B7050E94C0054B015C0136
:104180006093C3057093C4058093C5059093C605DD
:104190000E945C056093BF057093C0058093C105C4
:1041A0009093C20520E030E046E153E40E94A53040
:1041B0001816F4F020E030E048EC52E4C501B401F8
:1041C0000E94A5301816A4F081E08093B6053DC08A
:1041D0000E943E038EE493E017DC8091B605082E22
:1041E000000C990B8ADC60E87AE186E090E0D1D897
:1041F00082E0EBCF80910501877F8093050180915C
:10420000B805882309F4B1C561E080E090E00E9420
:10421000E32E8091B805833009F43CC1F8F4813075
:10422000C9F40E944E0387E193E0EFDB87E293E05D
:10423000ECDBE091B6058E2FEE0F990BAA0BBB0BB2
:10424000FC013197E930F10580F08091B7058111CB
:10425000D1CF2FCF823009F4A0C084C5843009F4B7
:104260009CC1853009F467C47DC58827EE58FF4F8F
:104270008F4F0C9465310E942E038EE493E0C4DBD3
:104280008091B605082E000C990B37DC21E04FEA2F
:104290005FEF60E879EA83E090E036C10E942E0388
:1042A0008EE493E0B1DB8091B605082E000C990BEB
:1042B00024DC21E047E950E060E379E38AE090E024
:1042C000A3C50E942E038EE493E09EDB8091B60589
:1042D000082E000C990B11DC41E068EC7FEA80E0CD
:1042E00090E09CC50E942E038EE493E08DDB8091CC
:1042F000B605082E000C990B00DC22E04BED50E0D7
:1043000060E773EF85E090E00E94EF0B96C50E9496
:104310001E038EE493E078DB8091B605082E000C36
:10432000990BEBDB2EED30E040E050E060E879EAFD
:1043300083E090E00E94F1168DC50E941E038EE47A
:1043400093E062DB8091B605082E000C990BD5DB5B
:1043500068EC7FEA80E090E00E94321586C50E94FA
:104360000E038EE493E050DB8091B605082E000C1E
:10437000990BC3DB60E67DE388E090E00E94941235
:1043800081C50E94FE028EE493E03EDB8091B6057B
:10439000082E000C990BB1DB7CC70E944E0389E10B
:1043A00093E033DBE091B6058E2FEE0F990BAA0B4D
:1043B000BB0BFC013197ED30F10508F046CF8827A3
:1043C000E558FF4F8F4F0C9465310E942E038EE409
:1043D00093E01ADB8091B605082E000C990B8DDB5B
:1043E00081E693E011DB68EE7BEE83E090E03EDB5C
:1043F00021E04FEA5FEF68EE7BEE83E090E084C05F
:104400000E942E0341E060E975E680E090E006C579
:104410000E942E0322E04EEB5FEF68E475E682E037
:1044200090E009C50E942E0322E04DE350E060E2D7
:1044300072E482E090E00CC50E942E0342E060E648
:104440007DE680E090E00FC50E942E0323E043EC60
:104450005FEF60E970ED83E090E012C50E942E03EB
:1044600023E042EE50E060E67DE388E090E015C591
:104470000E941E032EED30E040E050E060EE73E954
:1044800084E090E018C50E941E0368E776EE80E0A5
:1044900090E01BC50E944E038DE693E0B6DAE091F2
:1044A000B6058E2FEE0F990BAA0BBB0BFC013197B3
:1044B000ED30F10508F0C9CE8827E857FF4F8F4F40
:1044C0000C9465310E943E038EE493E09DDA809166
:1044D000B605082E000C990B10DB60EE72E282E04C
:1044E00090E085CE0E942E038EE493E08DDA8091D9
:1044F000B605082E000C990B00DB21E04FEA5FEFB8
:1045000060E178E982E090E00E946E0E0C949D2BB1
:104510000E942E0321E04BE550E060EB7EE184E059
:1045200090E072C40E942E0322E04EEB5FEF60E247
:104530007FEB82E090E07FC40E942E0322E04DE3F7
:1045400050E082C40E942E0323E04EEB5FEF94C440
:104550000E942E0323E048ED50E060ED7DED86E003
:1045600090E09BC40E941E032EED30E040E050E03E
:1045700060EC7AE780E190E09EC40E941E0360E256
:104580007BEC80E090E0A1C40E940E0360E67DE336
:1045900088E090E00E94941277C60E944E0389E75B
:1045A00093E033DAE091B6058E2FEE0F990BAA0B4C
:1045B000BB0BFC013197ED30F10508F046CE8827A2
:1045C000EB56FF4F8F4F0C9465310E942E038EE403
:1045D00093E01ADA8091B605082E000C990B8DDA5B
:1045E00021E040EB5FEF68E475E682E090E08CCF7D
:1045F0000E942E0321E04AE550E060E67FE485E07A
:1046000090E002C40E942E0342E004C40E942E03E4
:1046100022E04FEB5FEF68E676E382E090E00BC4C8
:104620000E942E0322E04CE350E060EB77EA82E048
:1046300090E00EC40E942E0323E044EC5FEF68EB91
:1046400075E081E090E01CC40E942E0323E042E765
:1046500050E068E476ED84E090E01FC40E941E0301
:1046600028E730E040E050E060E87FE482E190E05D
:1046700022C40E941E0360EA7CE880E090E025C42A
:104680000E940E030E94A2094B015C016093B205D7
:104690007093B3058093B4059093B5056093AE0510
:1046A0007093AF058093B0059093B10560938A0530
:1046B00070938B0580938C0590938D050E94A209C1
:1046C000DC01CB0188199909AA09BB098093AA05C5
:1046D0009093AB05A093AC05B093AD058091AA056E
:1046E0009091AB05A091AC05B091AD05803C9A4787
:1046F000A041B10508F0B9C50E9424060E94A20994
:104700000091B2051091B3052091B4053091B50523
:10471000DC01CB01801B910BA20BB30B8093AA058C
:104720009093AB05A093AC05B093AD0520EC3AE7B0
:1047300040E150E0281B390B4A0B5B0BCA01B90161
:1047400020939A0530939B0540939C0550939D05BB
:1047500020E63AEE40E050E00E94433129013A0160
:104760002093A6053093A7054093A8055093A9056B
:1047700028EE33E040E050E00E94433149015A0105
:104780002093A2053093A3054093A4055093A5055B
:104790008091B705882309F420C50E94A2090091E1
:1047A000AE051091AF052091B0053091B105DC0147
:1047B000CB01801B910BA20BB30B88389341A10551
:1047C000B10578F10E94A20969837A838B839C8367
:1047D0006093AE057093AF058093B0059093B105DB
:1047E00082E00E94BB190E94A209DC01CB01298151
:1047F0003A814B815C81821B930BA40BB50B8C3BE4
:104800009240A105B10518F40E94A319ECCF0E94B3
:10481000A2096093AE057093AF058093B0059093A5
:10482000B105C301B201A70196010E944331722E66
:10483000662E2093A1056093A005C501B401A701D0
:1048400096010E944331422F262F40939F0560938B
:104850009E05662D872D0E9472190E94CF036093DA
:1048600096057093970580939805909399050E94FB
:10487000C00560939205709393058093940590937F
:1048800095050E945C0560938E0570938F0580935B
:1048900090059093910588E993E0B6D88091B6058C
:1048A000082E000C990BFED882EB93E0ADD86091F6
:1048B0009605709197058091980590919905E3D898
:1048C0008EEB93E0A2D883EC93E09ED860919205A2
:1048D000709193058091940590919505D6D880EDBF
:1048E00093E092D860918E0570918F05809190052C
:1048F00090919105CAD883EE93E087D88CEF93E02E
:1049000083D86091A6057091A7058091A805909124
:10491000A90587D880E094E077D86091A2057091CE
:10492000A3058091A4059091A505A0D880919A0532
:1049300090919B05A0919C05B0919D05883E924366
:10494000AD40B10590F084E094E05FD8809105011E
:10495000877F80930501809102018061809302012D
:104960008091050180618093050180919A05909165
:104970009B05A0919C05B0919D05805F9C49A94035
:10498000B109883F9549A340B10590F488E194E0CE
:104990003CD88091020180618093020180910501E1
:1049A00080618093050180910501886080930501F5
:1049B00080919A0590919B05A0919C05B0919D05D1
:1049C000805B9109A940B10980349C49A105B105DA
:1049D00078F4809102018061809302018091050149
:1049E00080618093050180910501877F8093050197
:1049F00080919A0590919B05A0919C05B0919D0591
:104A000080549E47A540B10980379248A340B10524
:104A100078F4809102018061809302018091050108
:104A20008061809305018091050188608093050174
:104A300080919A0590919B05A0919C05B0919D0550
:104A4000805E9349A440B10980369A4EA105B10514
:104A500078F48091020180618093020180910501C8
:104A600080618093050180910501877F8093050116
:104A700080919A0590919B05A0919C05B0919D0510
:104A800080599F45A140B10980359443A340B105A9
:104A900078F4809102018061809302018091050188
:104AA00080618093050180910501886080930501F4
:104AB00080919A0590919B05A0919C05B0919D05D0
:104AC00080399F45A140B10578F480910201806151
:104AD000809302018091050180618093050180919E
:104AE0000501877F8093050120E030E044E353E433
:104AF00060918E0570918F05809190059091910540
:104B00000E94A53087FD02C0449801C0449A20E06D
:104B100030E044EB52E460919205709193058091EE
:104B20009405909195050E94A53087FD02C0459897
:104B3000D5CD459AD3CD0E944E038DE294E00E94DC
:104B4000051DE091B6058E2FEE0F990BAA0BBB0B3E
:104B5000FC013197E331F10508F077CB8827EE555A
:104B6000FF4F8F4F0C9465310E942E038EE493E02B
:104B70000E94041D8091B605082E000C990B0E941E
:104B80007D1D31C10E942E038EE493E00E94041D1E
:104B90008091B605082E000C990B0E947D1D21E026
:104BA0004AE550E060EA77EF83E090E02DC10E9493
:104BB0002E038EE493E00E94041D8091B605082E1A
:104BC000000C990B0E947D1D41E068EB7BE080E0CA
:104BD00090E024C10E942E038EE493E00E94041D05
:104BE0008091B605082E000C990B0E947D1D22E0D5
:104BF0004FEB5FEF60EF79E482E090E01CC10E9430
:104C00002E038EE493E00E94041D8091B605082EC9
:104C1000000C990B0E947D1D22E04CE350E060EBFC
:104C20007DEA81E090E014C10E942E0323E04FEB67
:104C30005FEF60EB71E78BE090E022C10E942E03F2
:104C400023E04CE350E060E77EE881E090E025C19E
:104C50000E942E0343E060E375E780E090E00E944D
:104C60007D102BC10E942E0324E04FEB5FEF68EF15
:104C700074E281E090E00E946E0E29C10E942E0332
:104C800024E04CE350E060EA76E881E090E00E94A6
:104C9000EF0BFAC20E942E0344E060E375E780E068
:104CA00090E00E947D108EE090CA0E942E0325E0C5
:104CB00044EC5FEF60E278E481E090E00E946E0EE9
:104CC0008FE083CA0E942E0325E048E750E060EAA7
:104CD00076E881E090E00E94EF0B80E176CA0E94C6
:104CE0001E038EE493E00E94041D8091B605082EF9
:104CF000000C990B0E947D1D28E730E040E050E059
:104D000060EE7FED81E290E00E94F11681E15DCAE4
:104D10000E941E038EE493E00E94041D8091B6055C
:104D2000082E000C990B0E947D1D60E47CE980E058
:104D300090E00E94321582E148CA0E940E038EE480
:104D400093E00E94041D8091B605082E000C990B7B
:104D50000E947D1D60E679E885E290E00E94941251
:104D600083E133CA8CE394E0EFC78091B9058823CF
:104D700009F46BCA823009F48FC2833009F498C6F3
:104D8000813009F0DFC70E944E0386E594E00E945F
:104D9000051DE091B6058E2FEE0F990BAA0BBB0BEC
:104DA000FC013197ED30F10508F04FCA8827EB542C
:104DB000FF4F8F4F0C9465310E942E038EE493E0D9
:104DC0000E94041D8091B605082E000C990B0E94CC
:104DD0007D1D81E693E00E94041D60EF79E482E08E
:104DE00090E00E94361D21E040EB5FEF60EF79E438
:104DF00082E090E089CB0E942E0321E04AE550E05A
:104E000060E574E383E090E00E94EF0B90C50E94A0
:104E10002E0341E060E47CE980E090E00E947D1098
:104E200085E0D3C90E942E0322E04FEB5FEF60EED6
:104E300072E282E090E00E946E0E86E0C6C90E9497
:104E40002E0322E04CE350E060EF79E482E090E052
:104E50000E94EF0B87E0B9C90E942E0342E060E395
:104E600075E780E090E00E947D1088E0AEC90E9466
:104E70002E0323E044EC5FEF60EF79E482E090E002
:104E80000E946E0E89E0A1C90E942E0323E041EE2C
:104E900050E060E271EA87E090E00E94EF0B8AE068
:104EA00094C90E941E032EED30E040E050E060E81F
:104EB00079EA83E090E00E94F1168BE086C90E94B7
:104EC0001E0368EC7FEA80E090E00E9432158CE0DF
:104ED0007CC90E940E030E94A2094B015C016093F1
:104EE000B2057093B3058093B4059093B5056093B4
:104EF000AE057093AF058093B0059093B1056093B4
:104F00008A0570938B0580938C0590938D050E9484
:104F1000A209DC01CB0188199909AA09BB09809370
:104F2000AA059093AB05A093AC05B093AD05F7C06F
:104F30000E94A2096093AE057093AF058093B005FF
:104F40009093B105C301B201A70196010E944331BC
:104F5000722E662E2093A1056093A005C501B401B1
:104F6000A70196010E944331422F262F40939F05AF
:104F700060939E05662D872D0E9472190E94CF03B3
:104F80006093960570939705809398059093990583
:104F90000E94C005609392057093930580939405D9
:104FA000909395050E945C0560938E0570938F0524
:104FB000809390059093910588E993E00E94041DE9
:104FC0008091B605082E000C990B0E94521D82EBB1
:104FD00093E00E94041D6091960570919705809161
:104FE0009805909199050E94431D8EEB93E00E94D5
:104FF000051D83EC93E00E94041D60919205709161
:10500000930580919405909195050E94451D80ED32
:1050100093E00E94041D60918E0570918F05809130
:105020009005909191050E94451D83EE93E00E94AA
:10503000051D8CEF93E00E94041D6091A605709100
:10504000A7058091A8059091A9050E94111D80E0F7
:1050500094E00E94041D6091A2057091A3058091C7
:10506000A4059091A5050E94361D80919A05909106
:105070009B05A0919C05B0919D0588309C44A14062
:10508000B10578F080910501877F809305018091BB
:10509000020180618093020180910501806180930B
:1050A000050180919A0590919B05A0919C05B09176
:1050B0009D0588309C44A140B10578F4809102019F
:1050C00080618093020180910501806180930501D8
:1050D0008091050188608093050120E030E044E381
:1050E00053E460918E0570918F05809190059091A9
:1050F00091050E94A53087FDB4C0449820E030E0BF
:1051000044EB52E46091920570919305809194056F
:10511000909195050E94A53087FDA5C04598809186
:10512000AA059091AB05A091AC05B091AD05803278
:105130009F4BA240B10508F098C00E9424060E942F
:10514000A2090091B2051091B3052091B4053091E8
:10515000B505DC01CB01801B910BA20BB30B809337
:10516000AA059093AB05A093AC05B093AD0520E2E2
:105170003FEB42E050E0281B390B4A0B5B0BCA01A6
:10518000B90120939A0530939B0540939C05509359
:105190009D0520E63AEE40E050E00E9443312901AF
:1051A0003A012093A6053093A7054093A805509394
:1051B000A90528EE33E040E050E00E944331490168
:1051C0005A012093A2053093A3054093A405509360
:1051D000A5058091B705811108C086E893E00E947B
:1051E000041D8FEF8093B60540C00E94A209009174
:1051F000AE051091AF052091B0053091B105DC01ED
:10520000CB01801B910BA20BB30B88389341A105F6
:10521000B10508F497CE0E94A20969837A838B8333
:105220009C836093AE057093AF058093B005909317
:10523000B10582E00E94BB190E94A209DC01CB01EA
:1052400029813A814B815C81821B930BA40BB50BA6
:105250008C3B9240A105B10508F06ACE0E94A319CB
:10526000EBCF449A4BCF459A5ACF809102018F7E63
:1052700080930201809105018F7E809305018091CA
:105280000501877F809305018DE00C94E5200E9445
:10529000FE020E94581252C50E944E0385E694E019
:1052A0000E94051D8091B605823009F457C14CF566
:1052B000813011F00C9425210E94A2094B015C0160
:1052C0006093B2057093B3058093B4059093B505D0
:1052D0006093AE057093AF058093B0059093B105D0
:1052E0000E94A209DC01CB0188199909AA09BB090E
:1052F0008093AA059093AB05A093AC05B093AD0540
:1053000036C0833009F41CC2843011F00C9425217E
:105310000E94A2094B015C016093B2057093B30532
:105320008093B4059093B5056093AE057093AF0577
:105330008093B0059093B1050E94A209DC01CB01D6
:1053400088199909AA09BB098093AA059093AB050E
:10535000A093AC05B093AD0548C380910201806174
:105360008093020180910501806180930501809105
:10537000AA059091AB05A091AC05B091AD05803820
:10538000994AA340B10508F0D8C00E94A2098090B4
:10539000B2059090B305A090B405B090B505DC01BE
:1053A000CB0188199909AA09BB098093AA05909392
:1053B000AB05A093AC05B093AD0520E839EA43E016
:1053C00050E0281B390B4A0B5B0BCA01B901209333
:1053D0009A0530939B0540939C0550939D0520E6CC
:1053E0003AEE40E050E04FD729013A012093A6055C
:1053F0003093A7054093A8055093A90528EE33E004
:1054000040E050E040D749015A012093A205309373
:10541000A3054093A4055093A5058091B70581117C
:1054200004C08FEF8093B60588C0C301B201A70105
:10543000960129D7722E662E2093A1056093A005B0
:10544000C501B401A70196011ED7422F262F409314
:105450009F0560939E05662D872D0E9472190E94FC
:10546000CF0360939605709397058093980590936A
:1054700099050E94C00560939205709393058093EF
:105480009405909395050E945C0560938E0570933A
:105490008F05809390059093910582EB93E00E9495
:1054A000041D6091960570919705809198059091E3
:1054B00099050E94431D8EEB93E00E94051D83EE2B
:1054C00093E00E94051D8CEF93E00E94041D609103
:1054D000A6057091A7058091A8059091A9050E9445
:1054E000111D80E094E00E94041D6091A20570915E
:1054F000A3058091A4059091A5050E94361D20E08A
:1055000030E040EA52EC60919605709197058091E9
:10551000980590919905CAD487FF1FCF8091020109
:105520008F7E80930201809105018F7E809305011B
:10553000809105018F7D80930501809102018F7E0E
:1055400080930201809105018F7E809305018091F7
:1055500005018061809305010C94F8200E94A20946
:105560004B015C016093B2057093B3058093B40561
:105570009093B5056093AE057093AF058093B00529
:105580009093B1050E94A209DC01CB018819990909
:10559000AA09BB098093AA059093AB05A093AC051B
:1055A000B093AD05BCC00E94A2098090B205909056
:1055B000B305A090B405B090B505DC01CB01881906
:1055C0009909AA09BB098093AA059093AB05A093FA
:1055D000AC05B093AD0520EE33E944E050E0281B64
:1055E000390B4A0B5B0BCA01B90120939A05309322
:1055F0009B0540939C0550939D0520E63AEE40E0C4
:1056000050E041D629013A012093A6053093A70521
:105610004093A8055093A90528EE33E040E050E000
:1056200032D649015A012093A2053093A305409335
:10563000A4055093A5058091B705882309F47DC082
:10564000C301B201A70196011ED6722E662E2093C9
:10565000A1056093A005C501B401A701960113D669
:10566000422F262F40939F0560939E05662D872D20
:105670000E9472190E94CF0360939605709397055C
:1056800080939805909399050E94C00560939205B8
:105690007093930580939405909395050E945C0503
:1056A00060938E0570938F0580939005909391057C
:1056B00082EB93E00E94041D60919605709197051E
:1056C00080919805909199050E94431D8EEB93E07F
:1056D0000E94051D83EE93E00E94051D8CEF93E070
:1056E0000E94041D6091A6057091A7058091A805F0
:1056F0009091A9050E94111D80E094E00E94041D74
:105700006091A2057091A3058091A4059091A505D3
:105710000E94361D80910501806280930501809171
:10572000AA059091AB05A091AC05B091AD05803E66
:105730009349A440B10508F436CF83E00C94E520EA
:105740000E94A2094B015C016093B2057093B305FE
:105750008093B4059093B5056093AE057093AF0543
:105760008093B0059093B1050E94A209DC01CB01A2
:1057700088199909AA09BB098093AA059093AB05DA
:10578000A093AC05B093AD058091AA059091AB05AF
:10579000A091AC05B091AD05803C9742A940B10500
:1057A00008F0C0C00E94A2098090B2059090B30595
:1057B000A090B405B090B505DC01CB01881999091A
:1057C000AA09BB098093AA059093AB05A093AC05E9
:1057D000B093AD0520EC37E249E050E0281B390BCF
:1057E0004A0B5B0BCA01B90120939A0530939B05C4
:1057F00040939C0550939D0520E63AEE40E050E032
:1058000042D529013A012093A6053093A70540937C
:10581000A8055093A90528EE33E040E050E033D5C9
:1058200049015A012093A2053093A3054093A40592
:105830005093A5058091B705811104C08FEF809327
:10584000B60570C0C301B201A70196011CD5722E26
:10585000662E2093A1056093A005C501B401A701A0
:10586000960111D5422F262F40939F0560939E05E8
:10587000662D872D0E9472190E94CF0360939605B2
:105880007093970580939805909399050E94C005A1
:10589000609392057093930580939405909395057A
:1058A0000E945C0560938E0570938F058093900530
:1058B0009093910582EB93E00E94041D6091960500
:1058C0007091970580919805909199050E94431DCC
:1058D0008EEB93E00E94051D83EE93E00E94051D70
:1058E0008CEF93E00E94041D6091A6057091A705BE
:1058F0008091A8059091A9050E94111D80E094E077
:105900000E94041D6091A2057091A3058091A405D9
:105910009091A5050E94361D8091050180628093BB
:10592000050132CF809105018F7D8093050184E0D0
:105930000C94E520C301B201A7019601A4D4722EF4
:10594000662E2093A1056093A005C501B401A701AF
:10595000960199D4422F262F40939F0560939E0570
:10596000662D872D0E9472190E94CF0360939605C1
:1059700070939705809398059093990582EB93E037
:105980000E94041D6091960570919705809198057D
:10599000909199050E94431D8EEB93E00E94051D96
:1059A00083EE93E00E94051D8CEF93E00E94041D9E
:1059B0006091A6057091A7058091A8059091A90511
:1059C0000E94111D80E094E00E94041D6091A205D8
:1059D0007091A3058091A4059091A5050E94361DA4
:1059E000809105018860809305018091AA059091BE
:1059F000AB05A091AC05B091AD0580339547A105ED
:105A0000B10508F04FC00E94A2098090B2059090A5
:105A1000B305A090B405B090B505DC01CB018819A1
:105A20009909AA09BB098093AA059093AB05A09395
:105A3000AC05B093AD0520E335E740E050E0281B0E
:105A4000390B4A0B5B0BCA01B90120939A053093BD
:105A50009B0540939C0550939D0520E63AEE40E05F
:105A600050E011D429013A012093A6053093A705EF
:105A70004093A8055093A90528EE33E040E050E09C
:105A800002D449015A012093A2053093A305409303
:105A9000A4055093A5058091B70581114BCF8FEFD9
:105AA0008093B60580910501877F8093050146C1EB
:105AB0000E944E0388E794E00E94051D0E94A209FF
:105AC0004B015C016093B2057093B3058093B405FC
:105AD0009093B5056093AE057093AF058093B005C4
